{
  "_format": "hh-sol-artifact-1",
  "contractName": "VRC25Token",
  "sourceName": "contracts/VRC25Token.sol",
  "abi": [
    {
      "inputs": [],
      "stateMutability": "nonpayable",
      "type": "constructor"
    },
    {
      "anonymous": false,
      "inputs": [
        {
          "indexed": true,
          "internalType": "address",
          "name": "owner",
          "type": "address"
        },
        {
          "indexed": true,
          "internalType": "address",
          "name": "spender",
          "type": "address"
        },
        {
          "indexed": false,
          "internalType": "uint256",
          "name": "value",
          "type": "uint256"
        }
      ],
      "name": "Approval",
      "type": "event"
    },
    {
      "anonymous": false,
      "inputs": [
        {
          "indexed": true,
          "internalType": "address",
          "name": "from",
          "type": "address"
        },
        {
          "indexed": true,
          "internalType": "address",
          "name": "to",
          "type": "address"
        },
        {
          "indexed": true,
          "internalType": "address",
          "name": "issuer",
          "type": "address"
        },
        {
          "indexed": false,
          "internalType": "uint256",
          "name": "value",
          "type": "uint256"
        }
      ],
      "name": "Fee",
      "type": "event"
    },
    {
      "anonymous": false,
      "inputs": [
        {
          "indexed": false,
          "internalType": "uint256",
          "name": "fee",
          "type": "uint256"
        }
      ],
      "name": "FeeUpdated",
      "type": "event"
    },
    {
      "anonymous": false,
      "inputs": [
        {
          "indexed": true,
          "internalType": "address",
          "name": "previousOwner",
          "type": "address"
        },
        {
          "indexed": true,
          "internalType": "address",
          "name": "newOwner",
          "type": "address"
        }
      ],
      "name": "OwnershipTransferred",
      "type": "event"
    },
    {
      "anonymous": false,
      "inputs": [
        {
          "indexed": true,
          "internalType": "address",
          "name": "from",
          "type": "address"
        },
        {
          "indexed": true,
          "internalType": "address",
          "name": "to",
          "type": "address"
        },
        {
          "indexed": false,
          "internalType": "uint256",
          "name": "value",
          "type": "uint256"
        }
      ],
      "name": "Transfer",
      "type": "event"
    },
    {
      "inputs": [],
      "name": "acceptOwnership",
      "outputs": [],
      "stateMutability": "nonpayable",
      "type": "function"
    },
    {
      "inputs": [
        {
          "internalType": "address",
          "name": "owner",
          "type": "address"
        },
        {
          "internalType": "address",
          "name": "spender",
          "type": "address"
        }
      ],
      "name": "allowance",
      "outputs": [
        {
          "internalType": "uint256",
          "name": "",
          "type": "uint256"
        }
      ],
      "stateMutability": "view",
      "type": "function"
    },
    {
      "inputs": [
        {
          "internalType": "address",
          "name": "spender",
          "type": "address"
        },
        {
          "internalType": "uint256",
          "name": "amount",
          "type": "uint256"
        }
      ],
      "name": "approve",
      "outputs": [
        {
          "internalType": "bool",
          "name": "",
          "type": "bool"
        }
      ],
      "stateMutability": "nonpayable",
      "type": "function"
    },
    {
      "inputs": [
        {
          "internalType": "address",
          "name": "owner",
          "type": "address"
        }
      ],
      "name": "balanceOf",
      "outputs": [
        {
          "internalType": "uint256",
          "name": "",
          "type": "uint256"
        }
      ],
      "stateMutability": "view",
      "type": "function"
    },
    {
      "inputs": [
        {
          "internalType": "uint256",
          "name": "amount",
          "type": "uint256"
        }
      ],
      "name": "burn",
      "outputs": [
        {
          "internalType": "bool",
          "name": "",
          "type": "bool"
        }
      ],
      "stateMutability": "nonpayable",
      "type": "function"
    },
    {
      "inputs": [],
      "name": "decimals",
      "outputs": [
        {
          "internalType": "uint8",
          "name": "",
          "type": "uint8"
        }
      ],
      "stateMutability": "view",
      "type": "function"
    },
    {
      "inputs": [
        {
          "internalType": "uint256",
          "name": "value",
          "type": "uint256"
        }
      ],
      "name": "estimateFee",
      "outputs": [
        {
          "internalType": "uint256",
          "name": "",
          "type": "uint256"
        }
      ],
      "stateMutability": "view",
      "type": "function"
    },
    {
      "inputs": [],
      "name": "issuer",
      "outputs": [
        {
          "internalType": "address",
          "name": "",
          "type": "address"
        }
      ],
      "stateMutability": "view",
      "type": "function"
    },
    {
      "inputs": [],
      "name": "minFee",
      "outputs": [
        {
          "internalType": "uint256",
          "name": "",
          "type": "uint256"
        }
      ],
      "stateMutability": "view",
      "type": "function"
    },
    {
      "inputs": [
        {
          "internalType": "address",
          "name": "recipient",
          "type": "address"
        },
        {
          "internalType": "uint256",
          "name": "amount",
          "type": "uint256"
        }
      ],
      "name": "mint",
      "outputs": [
        {
          "internalType": "bool",
          "name": "",
          "type": "bool"
        }
      ],
      "stateMutability": "nonpayable",
      "type": "function"
    },
    {
      "inputs": [],
      "name": "name",
      "outputs": [
        {
          "internalType": "string",
          "name": "",
          "type": "string"
        }
      ],
      "stateMutability": "view",
      "type": "function"
    },
    {
      "inputs": [],
      "name": "owner",
      "outputs": [
        {
          "internalType": "address",
          "name": "",
          "type": "address"
        }
      ],
      "stateMutability": "view",
      "type": "function"
    },
    {
      "inputs": [
        {
          "internalType": "uint256",
          "name": "fee",
          "type": "uint256"
        }
      ],
      "name": "setFee",
      "outputs": [],
      "stateMutability": "nonpayable",
      "type": "function"
    },
    {
      "inputs": [
        {
          "internalType": "bytes4",
          "name": "interfaceId",
          "type": "bytes4"
        }
      ],
      "name": "supportsInterface",
      "outputs": [
        {
          "internalType": "bool",
          "name": "",
          "type": "bool"
        }
      ],
      "stateMutability": "view",
      "type": "function"
    },
    {
      "inputs": [],
      "name": "symbol",
      "outputs": [
        {
          "internalType": "string",
          "name": "",
          "type": "string"
        }
      ],
      "stateMutability": "view",
      "type": "function"
    },
    {
      "inputs": [],
      "name": "totalSupply",
      "outputs": [
        {
          "internalType": "uint256",
          "name": "",
          "type": "uint256"
        }
      ],
      "stateMutability": "view",
      "type": "function"
    },
    {
      "inputs": [
        {
          "internalType": "address",
          "name": "recipient",
          "type": "address"
        },
        {
          "internalType": "uint256",
          "name": "amount",
          "type": "uint256"
        }
      ],
      "name": "transfer",
      "outputs": [
        {
          "internalType": "bool",
          "name": "",
          "type": "bool"
        }
      ],
      "stateMutability": "nonpayable",
      "type": "function"
    },
    {
      "inputs": [
        {
          "internalType": "address",
          "name": "sender",
          "type": "address"
        },
        {
          "internalType": "address",
          "name": "recipient",
          "type": "address"
        },
        {
          "internalType": "uint256",
          "name": "amount",
          "type": "uint256"
        }
      ],
      "name": "transferFrom",
      "outputs": [
        {
          "internalType": "bool",
          "name": "",
          "type": "bool"
        }
      ],
      "stateMutability": "nonpayable",
      "type": "function"
    },
    {
      "inputs": [
        {
          "internalType": "address",
          "name": "newOwner",
          "type": "address"
        }
      ],
      "name": "transferOwnership",
      "outputs": [],
      "stateMutability": "nonpayable",
      "type": "function"
    }
  ],
  "bytecode": "0x60806040523480156200001157600080fd5b506040518060400160405280601081526020017f5375706572737175616420546f6b656e000000000000000000000000000000008152506040518060400160405280600381526020017f53515400000000000000000000000000000000000000000000000000000000008152506012826005908162000091919062000383565b508160069081620000a3919062000383565b5080600760006101000a81548160ff021916908360ff16021790555033600260006101000a81548173ffffffffffffffffffffffffffffffffffffffff021916908373ffffffffffffffffffffffffffffffffffffffff1602179055505050506200046a565b600081519050919050565b7f4e487b7100000000000000000000000000000000000000000000000000000000600052604160045260246000fd5b7f4e487b7100000000000000000000000000000000000000000000000000000000600052602260045260246000fd5b600060028204905060018216806200018b57607f821691505b602082108103620001a157620001a062000143565b5b50919050565b60008190508160005260206000209050919050565b60006020601f8301049050919050565b600082821b905092915050565b6000600883026200020b7fffffffffffffffffffffffffffffffffffffffffffffffffffffffffffffffff82620001cc565b620002178683620001cc565b95508019841693508086168417925050509392505050565b6000819050919050565b6000819050919050565b6000620002646200025e62000258846200022f565b62000239565b6200022f565b9050919050565b6000819050919050565b620002808362000243565b620002986200028f826200026b565b848454620001d9565b825550505050565b600090565b620002af620002a0565b620002bc81848462000275565b505050565b5b81811015620002e457620002d8600082620002a5565b600181019050620002c2565b5050565b601f8211156200033357620002fd81620001a7565b6200030884620001bc565b8101602085101562000318578190505b620003306200032785620001bc565b830182620002c1565b50505b505050565b600082821c905092915050565b6000620003586000198460080262000338565b1980831691505092915050565b600062000373838362000345565b9150826002028217905092915050565b6200038e8262000109565b67ffffffffffffffff811115620003aa57620003a962000114565b5b620003b6825462000172565b620003c3828285620002e8565b600060209050601f831160018114620003fb5760008415620003e6578287015190505b620003f2858262000365565b86555062000462565b601f1984166200040b86620001a7565b60005b8281101562000435578489015182556001820191506020850194506020810190506200040e565b8683101562000455578489015162000451601f89168262000345565b8355505b6001600288020188555050505b505050505050565b612460806200047a6000396000f3fe608060405234801561001057600080fd5b50600436106101215760003560e01c806340c10f19116100ad5780638da5cb5b116100715780638da5cb5b1461033257806395d89b4114610350578063a9059cbb1461036e578063dd62ed3e1461039e578063f2fde38b146103ce57610121565b806340c10f191461027c57806342966c68146102ac57806369fe0e2d146102dc57806370a08231146102f857806379ba50971461032857610121565b806318160ddd116100f457806318160ddd146101d45780631d143848146101f257806323b872dd1461021057806324ec759014610240578063313ce5671461025e57610121565b806301ffc9a71461012657806306fdde0314610156578063095ea7b314610174578063127e8e4d146101a4575b600080fd5b610140600480360381019061013b919061194c565b6103ea565b60405161014d9190611994565b60405180910390f35b61015e610464565b60405161016b9190611a3f565b60405180910390f35b61018e60048036038101906101899190611af5565b6104f6565b60405161019b9190611994565b60405180910390f35b6101be60048036038101906101b99190611b35565b610526565b6040516101cb9190611b71565b60405180910390f35b6101dc610566565b6040516101e99190611b71565b60405180910390f35b6101fa610570565b6040516102079190611b9b565b60405180910390f35b61022a60048036038101906102259190611bb6565b61059a565b6040516102379190611994565b60405180910390f35b6102486107bc565b6040516102559190611b71565b60405180910390f35b6102666107c6565b6040516102739190611c25565b60405180910390f35b61029660048036038101906102919190611af5565b6107dd565b6040516102a39190611994565b60405180910390f35b6102c660048036038101906102c19190611b35565b610883565b6040516102d39190611994565b60405180910390f35b6102f660048036038101906102f19190611b35565b6108b1565b005b610312600480360381019061030d9190611c40565b610982565b60405161031f9190611b71565b60405180910390f35b6103306109ca565b005b61033a610ba5565b6040516103479190611b9b565b60405180910390f35b610358610bcf565b6040516103659190611a3f565b60405180910390f35b61038860048036038101906103839190611af5565b610c61565b6040516103959190611994565b60405180910390f35b6103b860048036038101906103b39190611c6d565b610c90565b6040516103c59190611b71565b60405180910390f35b6103e860048036038101906103e39190611c40565b610d17565b005b60007f08617865000000000000000000000000000000000000000000000000000000007bffffffffffffffffffffffffffffffffffffffffffffffffffffffff1916827bffffffffffffffffffffffffffffffffffffffffffffffffffffffff1916148061045d575061045c82610e5a565b5b9050919050565b60606005805461047390611cdc565b80601f016020809104026020016040519081016040528092919081815260200182805461049f90611cdc565b80156104ec5780601f106104c1576101008083540402835291602001916104ec565b820191906000526020600020905b8154815290600101906020018083116104cf57829003601f168201915b5050505050905090565b6000806105036000610526565b9050610510338585610ec4565b61051b33308361108d565b600191505092915050565b60006105473373ffffffffffffffffffffffffffffffffffffffff1661118b565b156105555760009050610561565b61055e8261119e565b90505b919050565b6000600854905090565b6000600260009054906101000a900473ffffffffffffffffffffffffffffffffffffffff16905090565b6000806105a683610526565b90506105bb81846111ba90919063ffffffff16565b600460008773ffffffffffffffffffffffffffffffffffffffff1673ffffffffffffffffffffffffffffffffffffffff16815260200190815260200160002060003373ffffffffffffffffffffffffffffffffffffffff1673ffffffffffffffffffffffffffffffffffffffff168152602001908152602001600020541015610679576040517f08c379a000000000000000000000000000000000000000000000000000000000815260040161067090611d59565b60405180910390fd5b61071a8161070c85600460008a73ffffffffffffffffffffffffffffffffffffffff1673ffffffffffffffffffffffffffffffffffffffff16815260200190815260200160002060003373ffffffffffffffffffffffffffffffffffffffff1673ffffffffffffffffffffffffffffffffffffffff1681526020019081526020016000205461121890919063ffffffff16565b61121890919063ffffffff16565b600460008773ffffffffffffffffffffffffffffffffffffffff1673ffffffffffffffffffffffffffffffffffffffff16815260200190815260200160002060003373ffffffffffffffffffffffffffffffffffffffff1673ffffffffffffffffffffffffffffffffffffffff168152602001908152602001600020819055506107a5858585611271565b6107b085858361108d565b60019150509392505050565b6000600154905090565b6000600760009054906101000a900460ff16905090565b60003373ffffffffffffffffffffffffffffffffffffffff16600260009054906101000a900473ffffffffffffffffffffffffffffffffffffffff1673ffffffffffffffffffffffffffffffffffffffff161461086f576040517f08c379a000000000000000000000000000000000000000000000000000000000815260040161086690611dc5565b60405180910390fd5b6108798383611560565b6001905092915050565b6000806108906000610526565b905061089c33846116e7565b6108a733308361108d565b6001915050919050565b3373ffffffffffffffffffffffffffffffffffffffff16600260009054906101000a900473ffffffffffffffffffffffffffffffffffffffff1673ffffffffffffffffffffffffffffffffffffffff1614610941576040517f08c379a000000000000000000000000000000000000000000000000000000000815260040161093890611dc5565b60405180910390fd5b806001819055507f8c4d35e54a3f2ef1134138fd8ea3daee6a3c89e10d2665996babdf70261e2c76816040516109779190611b71565b60405180910390a150565b60008060008373ffffffffffffffffffffffffffffffffffffffff1673ffffffffffffffffffffffffffffffffffffffff168152602001908152602001600020549050919050565b600360009054906101000a900473ffffffffffffffffffffffffffffffffffffffff1673ffffffffffffffffffffffffffffffffffffffff163373ffffffffffffffffffffffffffffffffffffffff1614610a5a576040517f08c379a0000000000000000000000000000000000000000000000000000000008152600401610a5190611e57565b60405180910390fd5b6000600260009054906101000a900473ffffffffffffffffffffffffffffffffffffffff169050600360009054906101000a900473ffffffffffffffffffffffffffffffffffffffff16600260006101000a81548173ffffffffffffffffffffffffffffffffffffffff021916908373ffffffffffffffffffffffffffffffffffffffff1602179055506000600360006101000a81548173ffffffffffffffffffffffffffffffffffffffff021916908373ffffffffffffffffffffffffffffffffffffffff160217905550600260009054906101000a900473ffffffffffffffffffffffffffffffffffffffff1673ffffffffffffffffffffffffffffffffffffffff168173ffffffffffffffffffffffffffffffffffffffff167f8be0079c531659141344cd1fd0a4f28419497f9722a3daafe3b4186f6b6457e060405160405180910390a350565b6000600260009054906101000a900473ffffffffffffffffffffffffffffffffffffffff16905090565b606060068054610bde90611cdc565b80601f0160208091040260200160405190810160405280929190818152602001828054610c0a90611cdc565b8015610c575780601f10610c2c57610100808354040283529160200191610c57565b820191906000526020600020905b815481529060010190602001808311610c3a57829003601f168201915b5050505050905090565b600080610c6d83610526565b9050610c7a338585611271565b610c8533858361108d565b600191505092915050565b6000600460008473ffffffffffffffffffffffffffffffffffffffff1673ffffffffffffffffffffffffffffffffffffffff16815260200190815260200160002060008373ffffffffffffffffffffffffffffffffffffffff1673ffffffffffffffffffffffffffffffffffffffff16815260200190815260200160002054905092915050565b3373ffffffffffffffffffffffffffffffffffffffff16600260009054906101000a900473ffffffffffffffffffffffffffffffffffffffff1673ffffffffffffffffffffffffffffffffffffffff1614610da7576040517f08c379a0000000000000000000000000000000000000000000000000000000008152600401610d9e90611dc5565b60405180910390fd5b600073ffffffffffffffffffffffffffffffffffffffff168173ffffffffffffffffffffffffffffffffffffffff1603610e16576040517f08c379a0000000000000000000000000000000000000000000000000000000008152600401610e0d90611ee9565b60405180910390fd5b80600360006101000a81548173ffffffffffffffffffffffffffffffffffffffff021916908373ffffffffffffffffffffffffffffffffffffffff16021790555050565b60007f08617865000000000000000000000000000000000000000000000000000000007bffffffffffffffffffffffffffffffffffffffffffffffffffffffff1916827bffffffffffffffffffffffffffffffffffffffffffffffffffffffff1916149050919050565b600073ffffffffffffffffffffffffffffffffffffffff168373ffffffffffffffffffffffffffffffffffffffff1603610f33576040517f08c379a0000000000000000000000000000000000000000000000000000000008152600401610f2a90611f7b565b60405180910390fd5b600073ffffffffffffffffffffffffffffffffffffffff168273ffffffffffffffffffffffffffffffffffffffff1603610fa2576040517f08c379a0000000000000000000000000000000000000000000000000000000008152600401610f999061200d565b60405180910390fd5b80600460008573ffffffffffffffffffffffffffffffffffffffff1673ffffffffffffffffffffffffffffffffffffffff16815260200190815260200160002060008473ffffffffffffffffffffffffffffffffffffffff1673ffffffffffffffffffffffffffffffffffffffff168152602001908152602001600020819055508173ffffffffffffffffffffffffffffffffffffffff168373ffffffffffffffffffffffffffffffffffffffff167f8c5be1e5ebec7d5bd14f71427d1e84f3dd0314c0f7b2291e5b200ac8c7c3b925836040516110809190611b71565b60405180910390a3505050565b6110ac3373ffffffffffffffffffffffffffffffffffffffff1661118b565b611186576000811115611185576110e683600260009054906101000a900473ffffffffffffffffffffffffffffffffffffffff1683611271565b600260009054906101000a900473ffffffffffffffffffffffffffffffffffffffff1673ffffffffffffffffffffffffffffffffffffffff168273ffffffffffffffffffffffffffffffffffffffff168473ffffffffffffffffffffffffffffffffffffffff167ffcf5b3276434181e3c48bd3fe569b8939808f11e845d4b963693b9d7dbd6dd998460405161117c9190611b71565b60405180910390a45b5b505050565b600080823b905060008111915050919050565b60006111a86107bc565b826111b3919061205c565b9050919050565b60008082846111c9919061205c565b90508381101561120e576040517f08c379a0000000000000000000000000000000000000000000000000000000008152600401611205906120dc565b60405180910390fd5b8091505092915050565b60008282111561125d576040517f08c379a000000000000000000000000000000000000000000000000000000000815260040161125490612148565b60405180910390fd5b81836112699190612168565b905092915050565b600073ffffffffffffffffffffffffffffffffffffffff168373ffffffffffffffffffffffffffffffffffffffff16036112e0576040517f08c379a00000000000000000000000000000000000000000000000000000000081526004016112d79061220e565b60405180910390fd5b600073ffffffffffffffffffffffffffffffffffffffff168273ffffffffffffffffffffffffffffffffffffffff160361134f576040517f08c379a0000000000000000000000000000000000000000000000000000000008152600401611346906122a0565b60405180910390fd5b6000808473ffffffffffffffffffffffffffffffffffffffff1673ffffffffffffffffffffffffffffffffffffffff168152602001908152602001600020548111156113d0576040517f08c379a00000000000000000000000000000000000000000000000000000000081526004016113c79061230c565b60405180910390fd5b611421816000808673ffffffffffffffffffffffffffffffffffffffff1673ffffffffffffffffffffffffffffffffffffffff1681526020019081526020016000205461121890919063ffffffff16565b6000808573ffffffffffffffffffffffffffffffffffffffff1673ffffffffffffffffffffffffffffffffffffffff168152602001908152602001600020819055506114b4816000808573ffffffffffffffffffffffffffffffffffffffff1673ffffffffffffffffffffffffffffffffffffffff168152602001908152602001600020546111ba90919063ffffffff16565b6000808473ffffffffffffffffffffffffffffffffffffffff1673ffffffffffffffffffffffffffffffffffffffff168152602001908152602001600020819055508173ffffffffffffffffffffffffffffffffffffffff168373ffffffffffffffffffffffffffffffffffffffff167fddf252ad1be2c89b69c2b068fc378daa952ba7f163c4a11628f55a4df523b3ef836040516115539190611b71565b60405180910390a3505050565b600073ffffffffffffffffffffffffffffffffffffffff168273ffffffffffffffffffffffffffffffffffffffff16036115cf576040517f08c379a00000000000000000000000000000000000000000000000000000000081526004016115c690612378565b60405180910390fd5b6115e4816008546111ba90919063ffffffff16565b60088190555061163b816000808573ffffffffffffffffffffffffffffffffffffffff1673ffffffffffffffffffffffffffffffffffffffff168152602001908152602001600020546111ba90919063ffffffff16565b6000808473ffffffffffffffffffffffffffffffffffffffff1673ffffffffffffffffffffffffffffffffffffffff168152602001908152602001600020819055508173ffffffffffffffffffffffffffffffffffffffff16600073ffffffffffffffffffffffffffffffffffffffff167fddf252ad1be2c89b69c2b068fc378daa952ba7f163c4a11628f55a4df523b3ef836040516116db9190611b71565b60405180910390a35050565b600073ffffffffffffffffffffffffffffffffffffffff168273ffffffffffffffffffffffffffffffffffffffff1603611756576040517f08c379a000000000000000000000000000000000000000000000000000000000815260040161174d9061240a565b60405180910390fd5b6000808373ffffffffffffffffffffffffffffffffffffffff1673ffffffffffffffffffffffffffffffffffffffff168152602001908152602001600020548111156117d7576040517f08c379a00000000000000000000000000000000000000000000000000000000081526004016117ce9061230c565b60405180910390fd5b6117ec8160085461121890919063ffffffff16565b600881905550611843816000808573ffffffffffffffffffffffffffffffffffffffff1673ffffffffffffffffffffffffffffffffffffffff1681526020019081526020016000205461121890919063ffffffff16565b6000808473ffffffffffffffffffffffffffffffffffffffff1673ffffffffffffffffffffffffffffffffffffffff16815260200190815260200160002081905550600073ffffffffffffffffffffffffffffffffffffffff168273ffffffffffffffffffffffffffffffffffffffff167fddf252ad1be2c89b69c2b068fc378daa952ba7f163c4a11628f55a4df523b3ef836040516118e39190611b71565b60405180910390a35050565b600080fd5b60007fffffffff0000000000000000000000000000000000000000000000000000000082169050919050565b611929816118f4565b811461193457600080fd5b50565b60008135905061194681611920565b92915050565b600060208284031215611962576119616118ef565b5b600061197084828501611937565b91505092915050565b60008115159050919050565b61198e81611979565b82525050565b60006020820190506119a96000830184611985565b92915050565b600081519050919050565b600082825260208201905092915050565b60005b838110156119e95780820151818401526020810190506119ce565b60008484015250505050565b6000601f19601f8301169050919050565b6000611a11826119af565b611a1b81856119ba565b9350611a2b8185602086016119cb565b611a34816119f5565b840191505092915050565b60006020820190508181036000830152611a598184611a06565b905092915050565b600073ffffffffffffffffffffffffffffffffffffffff82169050919050565b6000611a8c82611a61565b9050919050565b611a9c81611a81565b8114611aa757600080fd5b50565b600081359050611ab981611a93565b92915050565b6000819050919050565b611ad281611abf565b8114611add57600080fd5b50565b600081359050611aef81611ac9565b92915050565b60008060408385031215611b0c57611b0b6118ef565b5b6000611b1a85828601611aaa565b9250506020611b2b85828601611ae0565b9150509250929050565b600060208284031215611b4b57611b4a6118ef565b5b6000611b5984828501611ae0565b91505092915050565b611b6b81611abf565b82525050565b6000602082019050611b866000830184611b62565b92915050565b611b9581611a81565b82525050565b6000602082019050611bb06000830184611b8c565b92915050565b600080600060608486031215611bcf57611bce6118ef565b5b6000611bdd86828701611aaa565b9350506020611bee86828701611aaa565b9250506040611bff86828701611ae0565b9150509250925092565b600060ff82169050919050565b611c1f81611c09565b82525050565b6000602082019050611c3a6000830184611c16565b92915050565b600060208284031215611c5657611c556118ef565b5b6000611c6484828501611aaa565b91505092915050565b60008060408385031215611c8457611c836118ef565b5b6000611c9285828601611aaa565b9250506020611ca385828601611aaa565b9150509250929050565b7f4e487b7100000000000000000000000000000000000000000000000000000000600052602260045260246000fd5b60006002820490506001821680611cf457607f821691505b602082108103611d0757611d06611cad565b5b50919050565b7f56524332353a20616d6f756e742065786565647320616c6c6f77616e63650000600082015250565b6000611d43601e836119ba565b9150611d4e82611d0d565b602082019050919050565b60006020820190508181036000830152611d7281611d36565b9050919050565b7f56524332353a2063616c6c6572206973206e6f7420746865206f776e65720000600082015250565b6000611daf601e836119ba565b9150611dba82611d79565b602082019050919050565b60006020820190508181036000830152611dde81611da2565b9050919050565b7f56524332353a206f6e6c79206e6577206f776e65722063616e2061636365707460008201527f206f776e65727368697000000000000000000000000000000000000000000000602082015250565b6000611e41602a836119ba565b9150611e4c82611de5565b604082019050919050565b60006020820190508181036000830152611e7081611e34565b9050919050565b7f56524332353a206e6577206f776e657220697320746865207a65726f2061646460008201527f7265737300000000000000000000000000000000000000000000000000000000602082015250565b6000611ed36024836119ba565b9150611ede82611e77565b604082019050919050565b60006020820190508181036000830152611f0281611ec6565b9050919050565b7f56524332353a20617070726f76652066726f6d20746865207a65726f2061646460008201527f7265737300000000000000000000000000000000000000000000000000000000602082015250565b6000611f656024836119ba565b9150611f7082611f09565b604082019050919050565b60006020820190508181036000830152611f9481611f58565b9050919050565b7f56524332353a20617070726f766520746f20746865207a65726f20616464726560008201527f7373000000000000000000000000000000000000000000000000000000000000602082015250565b6000611ff76022836119ba565b915061200282611f9b565b604082019050919050565b6000602082019050818103600083015261202681611fea565b9050919050565b7f4e487b7100000000000000000000000000000000000000000000000000000000600052601160045260246000fd5b600061206782611abf565b915061207283611abf565b925082820190508082111561208a5761208961202d565b5b92915050565b7f536166654d6174683a206164646974696f6e206f766572666c6f770000000000600082015250565b60006120c6601b836119ba565b91506120d182612090565b602082019050919050565b600060208201905081810360008301526120f5816120b9565b9050919050565b7f536166654d6174683a207375627472616374696f6e206f766572666c6f770000600082015250565b6000612132601e836119ba565b915061213d826120fc565b602082019050919050565b6000602082019050818103600083015261216181612125565b9050919050565b600061217382611abf565b915061217e83611abf565b92508282039050818111156121965761219561202d565b5b92915050565b7f56524332353a207472616e736665722066726f6d20746865207a65726f20616460008201527f6472657373000000000000000000000000000000000000000000000000000000602082015250565b60006121f86025836119ba565b91506122038261219c565b604082019050919050565b60006020820190508181036000830152612227816121eb565b9050919050565b7f56524332353a207472616e7366657220746f20746865207a65726f206164647260008201527f6573730000000000000000000000000000000000000000000000000000000000602082015250565b600061228a6023836119ba565b91506122958261222e565b604082019050919050565b600060208201905081810360008301526122b98161227d565b9050919050565b7f56524332353a20696e7375666669656e742062616c616e636500000000000000600082015250565b60006122f66019836119ba565b9150612301826122c0565b602082019050919050565b60006020820190508181036000830152612325816122e9565b9050919050565b7f56524332353a206d696e7420746f20746865207a65726f206164647265737300600082015250565b6000612362601f836119ba565b915061236d8261232c565b602082019050919050565b6000602082019050818103600083015261239181612355565b9050919050565b7f56524332353a206275726e2066726f6d20746865207a65726f2061646472657360008201527f7300000000000000000000000000000000000000000000000000000000000000602082015250565b60006123f46021836119ba565b91506123ff82612398565b604082019050919050565b60006020820190508181036000830152612423816123e7565b905091905056fea2646970667358221220daa165ac448f75483551e84b199d68e2e7e47882ed9b59d2442f1e06abe29a6f64736f6c63430008140033",
  "linkReferences": {},
  "deployedLinkReferences": {}
}