{"contracts/dynamicpool/factory/DynamicPoolFactory.sol":{"DynamicPoolFactory":{"abi":[{"inputs":[{"internalType":"address","name":"_owner","type":"address"}],"stateMutability":"nonpayable","type":"constructor"},{"anonymous":false,"inputs":[{"indexed":true,"internalType":"address","name":"Success","type":"address"},{"indexed":true,"internalType":"address","name":"Fail","type":"address"},{"indexed":true,"internalType":"address","name":"Creator","type":"address"}],"name":"ChallengeCreated","type":"event"},{"anonymous":false,"inputs":[{"indexed":false,"internalType":"address","name":"Pool","type":"address"},{"indexed":false,"internalType":"address","name":"User","type":"address"},{"indexed":false,"internalType":"uint256","name":"Deposit","type":"uint256"},{"indexed":false,"internalType":"bool","name":"Form","type":"bool"}],"name":"DepositMoved","type":"event"},{"anonymous":false,"inputs":[{"indexed":true,"internalType":"address","name":"OwnerAddress","type":"address"}],"name":"OwnerChanged","type":"event"},{"stateMutability":"nonpayable","type":"fallback"},{"inputs":[{"internalType":"address","name":"_owner","type":"address"}],"name":"changeOwner","outputs":[],"stateMutability":"nonpayable","type":"function"},{"inputs":[{"internalType":"string","name":"_name","type":"string"}],"name":"createChallenge","outputs":[{"components":[{"internalType":"address payable","name":"Success","type":"address"},{"internalType":"address payable","name":"Fail","type":"address"}],"internalType":"struct Struct.Challenge","name":"","type":"tuple"}],"stateMutability":"nonpayable","type":"function"},{"inputs":[{"internalType":"uint256","name":"_idx","type":"uint256"}],"name":"getChallenge","outputs":[{"components":[{"internalType":"address payable","name":"Success","type":"address"},{"internalType":"address payable","name":"Fail","type":"address"}],"internalType":"struct Struct.Challenge","name":"","type":"tuple"}],"stateMutability":"view","type":"function"},{"inputs":[],"name":"getIndex","outputs":[{"internalType":"uint256","name":"","type":"uint256"}],"stateMutability":"view","type":"function"},{"inputs":[],"name":"getOwner","outputs":[{"internalType":"address","name":"","type":"address"}],"stateMutability":"view","type":"function"},{"inputs":[{"internalType":"address","name":"_pool","type":"address"},{"internalType":"uint256","name":"_idx","type":"uint256"}],"name":"responseReversePool","outputs":[{"internalType":"address","name":"","type":"address"}],"stateMutability":"view","type":"function"},{"inputs":[{"internalType":"address","name":"_Success","type":"address"},{"internalType":"address","name":"_Fail","type":"address"},{"internalType":"uint256","name":"_idx","type":"uint256"}],"name":"storeChallenge","outputs":[{"components":[{"internalType":"address payable","name":"Success","type":"address"},{"internalType":"address payable","name":"Fail","type":"address"}],"internalType":"struct Struct.Challenge","name":"","type":"tuple"}],"stateMutability":"nonpayable","type":"function"}],"evm":{"bytecode":{"linkReferences":{},"object":"60806040523480156200001157600080fd5b5060405162003c5638038062003c568339818101604052810190620000379190620000f0565b806000806101000a81548173ffffffffffffffffffffffffffffffffffffffff021916908373ffffffffffffffffffffffffffffffffffffffff16021790555060006001819055505062000122565b600080fd5b600073ffffffffffffffffffffffffffffffffffffffff82169050919050565b6000620000b8826200008b565b9050919050565b620000ca81620000ab565b8114620000d657600080fd5b50565b600081519050620000ea81620000bf565b92915050565b60006020828403121562000109576200010862000086565b5b60006200011984828501620000d9565b91505092915050565b613b2480620001326000396000f3fe60806040523480156200001157600080fd5b50600436106200008d5760003560e01c8063893d20e81162000063578063893d20e8146200011e5780639086f77214620001405780639b4ecbbb1462000176578063a6f9dae114620001ac576200008e565b80631bdd4b7414620000905780636bf78c2f14620000c657806381045ead14620000fc576200008e565b5b005b620000ae6004803603810190620000a8919062000bab565b620001cc565b604051620000bd919062000c55565b60405180910390f35b620000e46004803603810190620000de919062000dd4565b620002a7565b604051620000f3919062000c55565b60405180910390f35b620001066200049c565b60405162000115919062000e36565b60405180910390f35b62000128620004a6565b60405162000137919062000e78565b60405180910390f35b6200015e600480360381019062000158919062000ec6565b620004cf565b6040516200016d919062000e78565b60405180910390f35b6200019460048036038101906200018e919062000f0d565b62000695565b604051620001a3919062000c55565b60405180910390f35b620001ca6004803603810190620001c4919062000f69565b620008a9565b005b620001d662000b08565b600260008381526020019081526020016000206040518060400160405290816000820160009054906101000a900473ffffffffffffffffffffffffffffffffffffffff1673ffffffffffffffffffffffffffffffffffffffff1673ffffffffffffffffffffffffffffffffffffffff1681526020016001820160009054906101000a900473ffffffffffffffffffffffffffffffffffffffff1673ffffffffffffffffffffffffffffffffffffffff1673ffffffffffffffffffffffffffffffffffffffff16815250509050919050565b620002b162000b08565b6000620002bd62000981565b90508062000302576040517f08c379a0000000000000000000000000000000000000000000000000000000008152600401620002f99062001022565b60405180910390fd5b600180600082825462000316919062001073565b9250508190555060008360008054906101000a900473ffffffffffffffffffffffffffffffffffffffff163060018054604051620003549062000b4e565b6200036495949392919062001154565b604051809103906000f08015801562000381573d6000803e3d6000fd5b50905060008460008054906101000a900473ffffffffffffffffffffffffffffffffffffffff16306000600154604051620003bc9062000b4e565b620003cc95949392919062001154565b604051809103906000f080158015620003e9573d6000803e3d6000fd5b5090506000620003fd838360015462000695565b905060008054906101000a900473ffffffffffffffffffffffffffffffffffffffff1673ffffffffffffffffffffffffffffffffffffffff168273ffffffffffffffffffffffffffffffffffffffff168473ffffffffffffffffffffffffffffffffffffffff167f3a919f2dae35bbfa24fbba5570c74151c00deccd003b2770e859da50ad5c6d8d60405160405180910390a480945050505050919050565b6000600154905090565b60008060009054906101000a900473ffffffffffffffffffffffffffffffffffffffff16905090565b600080620004dc62000981565b90508062000521576040517f08c379a0000000000000000000000000000000000000000000000000000000008152600401620005189062001022565b60405180910390fd5b6200052c83620009e5565b6200056e576040517f08c379a000000000000000000000000000000000000000000000000000000000815260040162000565906200122e565b60405180910390fd5b6000600260008581526020019081526020016000206040518060400160405290816000820160009054906101000a900473ffffffffffffffffffffffffffffffffffffffff1673ffffffffffffffffffffffffffffffffffffffff1673ffffffffffffffffffffffffffffffffffffffff1681526020016001820160009054906101000a900473ffffffffffffffffffffffffffffffffffffffff1673ffffffffffffffffffffffffffffffffffffffff1673ffffffffffffffffffffffffffffffffffffffff1681525050905060008573ffffffffffffffffffffffffffffffffffffffff16826000015173ffffffffffffffffffffffffffffffffffffffff16146200068157816000015162000687565b81602001515b905080935050505092915050565b6200069f62000b08565b6000620006ab62000981565b905080620006f0576040517f08c379a0000000000000000000000000000000000000000000000000000000008152600401620006e79062001022565b60405180910390fd5b60405180604001604052808673ffffffffffffffffffffffffffffffffffffffff1681526020018573ffffffffffffffffffffffffffffffffffffffff168152506002600085815260200190815260200160002060008201518160000160006101000a81548173ffffffffffffffffffffffffffffffffffffffff021916908373ffffffffffffffffffffffffffffffffffffffff16021790555060208201518160010160006101000a81548173ffffffffffffffffffffffffffffffffffffffff021916908373ffffffffffffffffffffffffffffffffffffffff160217905550905050600260008481526020019081526020016000206040518060400160405290816000820160009054906101000a900473ffffffffffffffffffffffffffffffffffffffff1673ffffffffffffffffffffffffffffffffffffffff1673ffffffffffffffffffffffffffffffffffffffff1681526020016001820160009054906101000a900473ffffffffffffffffffffffffffffffffffffffff1673ffffffffffffffffffffffffffffffffffffffff1673ffffffffffffffffffffffffffffffffffffffff16815250509150509392505050565b6000620008b562000981565b905080620008fa576040517f08c379a0000000000000000000000000000000000000000000000000000000008152600401620008f19062001022565b60405180910390fd5b816000806101000a81548173ffffffffffffffffffffffffffffffffffffffff021916908373ffffffffffffffffffffffffffffffffffffffff1602179055508173ffffffffffffffffffffffffffffffffffffffff167fa2ea9883a321a3e97b8266c2b078bfeec6d50c711ed71f874a90d500ae2eaf3660405160405180910390a25050565b60008060008054906101000a900473ffffffffffffffffffffffffffffffffffffffff1673ffffffffffffffffffffffffffffffffffffffff16620009c562000b00565b73ffffffffffffffffffffffffffffffffffffffff161490508091505090565b600080600260008481526020019081526020016000206040518060400160405290816000820160009054906101000a900473ffffffffffffffffffffffffffffffffffffffff1673ffffffffffffffffffffffffffffffffffffffff1673ffffffffffffffffffffffffffffffffffffffff1681526020016001820160009054906101000a900473ffffffffffffffffffffffffffffffffffffffff1673ffffffffffffffffffffffffffffffffffffffff1673ffffffffffffffffffffffffffffffffffffffff16815250509050600073ffffffffffffffffffffffffffffffffffffffff16816000015173ffffffffffffffffffffffffffffffffffffffff160362000af557600062000af8565b60015b915050919050565b600033905090565b6040518060400160405280600073ffffffffffffffffffffffffffffffffffffffff168152602001600073ffffffffffffffffffffffffffffffffffffffff1681525090565b61289e806200125183390190565b6000604051905090565b600080fd5b600080fd5b6000819050919050565b62000b858162000b70565b811462000b9157600080fd5b50565b60008135905062000ba58162000b7a565b92915050565b60006020828403121562000bc45762000bc362000b66565b5b600062000bd48482850162000b94565b91505092915050565b600073ffffffffffffffffffffffffffffffffffffffff82169050919050565b600062000c0a8262000bdd565b9050919050565b62000c1c8162000bfd565b82525050565b60408201600082015162000c3a600085018262000c11565b50602082015162000c4f602085018262000c11565b50505050565b600060408201905062000c6c600083018462000c22565b92915050565b600080fd5b600080fd5b6000601f19601f8301169050919050565b7f4e487b7100000000000000000000000000000000000000000000000000000000600052604160045260246000fd5b62000cc78262000c7c565b810181811067ffffffffffffffff8211171562000ce95762000ce862000c8d565b5b80604052505050565b600062000cfe62000b5c565b905062000d0c828262000cbc565b919050565b600067ffffffffffffffff82111562000d2f5762000d2e62000c8d565b5b62000d3a8262000c7c565b9050602081019050919050565b82818337600083830152505050565b600062000d6d62000d678462000d11565b62000cf2565b90508281526020810184848401111562000d8c5762000d8b62000c77565b5b62000d9984828562000d47565b509392505050565b600082601f83011262000db95762000db862000c72565b5b813562000dcb84826020860162000d56565b91505092915050565b60006020828403121562000ded5762000dec62000b66565b5b600082013567ffffffffffffffff81111562000e0e5762000e0d62000b6b565b5b62000e1c8482850162000da1565b91505092915050565b62000e308162000b70565b82525050565b600060208201905062000e4d600083018462000e25565b92915050565b600062000e608262000bdd565b9050919050565b62000e728162000e53565b82525050565b600060208201905062000e8f600083018462000e67565b92915050565b62000ea08162000e53565b811462000eac57600080fd5b50565b60008135905062000ec08162000e95565b92915050565b6000806040838503121562000ee05762000edf62000b66565b5b600062000ef08582860162000eaf565b925050602062000f038582860162000b94565b9150509250929050565b60008060006060848603121562000f295762000f2862000b66565b5b600062000f398682870162000eaf565b935050602062000f4c8682870162000eaf565b925050604062000f5f8682870162000b94565b9150509250925092565b60006020828403121562000f825762000f8162000b66565b5b600062000f928482850162000eaf565b91505092915050565b600082825260208201905092915050565b7f44796e616d6963506f6f6c466163746f7279204572726f723a204f6e6c79204f60008201527f776e65722043616e206368616e6765204f776e65720000000000000000000000602082015250565b60006200100a60358362000f9b565b9150620010178262000fac565b604082019050919050565b600060208201905081810360008301526200103d8162000ffb565b9050919050565b7f4e487b7100000000000000000000000000000000000000000000000000000000600052601160045260246000fd5b6000620010808262000b70565b91506200108d8362000b70565b9250828201905080821115620010a857620010a762001044565b5b92915050565b600081519050919050565b60005b83811015620010d9578082015181840152602081019050620010bc565b60008484015250505050565b6000620010f282620010ae565b620010fe818562000f9b565b935062001110818560208601620010b9565b6200111b8162000c7c565b840191505092915050565b620011318162000bfd565b82525050565b60008115159050919050565b6200114e8162001137565b82525050565b600060a0820190508181036000830152620011708188620010e5565b905062001181602083018762001126565b62001190604083018662000e67565b6200119f606083018562001143565b620011ae608083018462000e25565b9695505050505050565b7f44796e616d6963506f6f6c466163746f7279204572726f723a204368616c6c6560008201527f6e676520496e646578206973206e6f7420457869737400000000000000000000602082015250565b60006200121660368362000f9b565b91506200122382620011b8565b604082019050919050565b60006020820190508181036000830152620012498162001207565b905091905056fe60806040523480156200001157600080fd5b506040516200289e3803806200289e8339818101604052810190620000379190620003ac565b846000908162000048919062000694565b5083600160006101000a81548173ffffffffffffffffffffffffffffffffffffffff021916908373ffffffffffffffffffffffffffffffffffffffff16021790555082600260006101000a81548173ffffffffffffffffffffffffffffffffffffffff021916908373ffffffffffffffffffffffffffffffffffffffff16021790555081600260146101000a81548160ff0219169083151502179055508060038190555050505050506200077b565b6000604051905090565b600080fd5b600080fd5b600080fd5b600080fd5b6000601f19601f8301169050919050565b7f4e487b7100000000000000000000000000000000000000000000000000000000600052604160045260246000fd5b620001608262000115565b810181811067ffffffffffffffff8211171562000182576200018162000126565b5b80604052505050565b600062000197620000f7565b9050620001a5828262000155565b919050565b600067ffffffffffffffff821115620001c857620001c762000126565b5b620001d38262000115565b9050602081019050919050565b60005b8381101562000200578082015181840152602081019050620001e3565b60008484015250505050565b6000620002236200021d84620001aa565b6200018b565b90508281526020810184848401111562000242576200024162000110565b5b6200024f848285620001e0565b509392505050565b600082601f8301126200026f576200026e6200010b565b5b8151620002818482602086016200020c565b91505092915050565b600073ffffffffffffffffffffffffffffffffffffffff82169050919050565b6000620002b7826200028a565b9050919050565b620002c981620002aa565b8114620002d557600080fd5b50565b600081519050620002e981620002be565b92915050565b6000620002fc826200028a565b9050919050565b6200030e81620002ef565b81146200031a57600080fd5b50565b6000815190506200032e8162000303565b92915050565b60008115159050919050565b6200034b8162000334565b81146200035757600080fd5b50565b6000815190506200036b8162000340565b92915050565b6000819050919050565b620003868162000371565b81146200039257600080fd5b50565b600081519050620003a6816200037b565b92915050565b600080600080600060a08688031215620003cb57620003ca62000101565b5b600086015167ffffffffffffffff811115620003ec57620003eb62000106565b5b620003fa8882890162000257565b95505060206200040d88828901620002d8565b945050604062000420888289016200031d565b935050606062000433888289016200035a565b9250506080620004468882890162000395565b9150509295509295909350565b600081519050919050565b7f4e487b7100000000000000000000000000000000000000000000000000000000600052602260045260246000fd5b60006002820490506001821680620004a657607f821691505b602082108103620004bc57620004bb6200045e565b5b50919050565b60008190508160005260206000209050919050565b60006020601f8301049050919050565b600082821b905092915050565b600060088302620005267fffffffffffffffffffffffffffffffffffffffffffffffffffffffffffffffff82620004e7565b620005328683620004e7565b95508019841693508086168417925050509392505050565b6000819050919050565b6000620005756200056f620005698462000371565b6200054a565b62000371565b9050919050565b6000819050919050565b620005918362000554565b620005a9620005a0826200057c565b848454620004f4565b825550505050565b600090565b620005c0620005b1565b620005cd81848462000586565b505050565b5b81811015620005f557620005e9600082620005b6565b600181019050620005d3565b5050565b601f82111562000644576200060e81620004c2565b6200061984620004d7565b8101602085101562000629578190505b620006416200063885620004d7565b830182620005d2565b50505b505050565b600082821c905092915050565b6000620006696000198460080262000649565b1980831691505092915050565b600062000684838362000656565b9150826002028217905092915050565b6200069f8262000453565b67ffffffffffffffff811115620006bb57620006ba62000126565b5b620006c782546200048d565b620006d4828285620005f9565b600060209050601f8311600181146200070c5760008415620006f7578287015190505b62000703858262000676565b86555062000773565b601f1984166200071c86620004c2565b60005b8281101562000746578489015182556001820191506020850194506020810190506200071f565b8683101562000766578489015162000762601f89168262000656565b8355505b6001600288020188555050505b505050505050565b612113806200078b6000396000f3fe6080604052600436106101025760003560e01c806388cc58e411610095578063c45a015511610064578063c45a015514610341578063d30171931461036c578063d92ca747146103a9578063e2842d79146103d4578063e992ecc8146103ff57610109565b806388cc58e414610295578063893d20e8146102c05780638da5cb5b146102eb578063c3dfe0351461031657610109565b80635c60f226116100d15780635c60f226146101bf5780636f77926b146101fc5780637f07bfdc1461023a57806381045ead1461026a57610109565b806306fdde031461010e57806312065fe01461013957806317d7de7c146101645780632ccb1b301461018f57610109565b3661010957005b600080fd5b34801561011a57600080fd5b5061012361042f565b6040516101309190611744565b60405180910390f35b34801561014557600080fd5b5061014e6104bd565b60405161015b919061177f565b60405180910390f35b34801561017057600080fd5b506101796104c5565b6040516101869190611744565b60405180910390f35b6101a960048036038101906101a49190611829565b610557565b6040516101b69190611884565b60405180910390f35b3480156101cb57600080fd5b506101e660048036038101906101e1919061189f565b61073b565b6040516101f391906119c8565b60405180910390f35b34801561020857600080fd5b50610223600480360381019061021e919061189f565b610a00565b604051610231929190611a19565b60405180910390f35b610254600480360381019061024f9190611829565b610b7d565b6040516102619190611884565b60405180910390f35b34801561027657600080fd5b5061027f610dde565b60405161028c919061177f565b60405180910390f35b3480156102a157600080fd5b506102aa610de8565b6040516102b79190611a51565b60405180910390f35b3480156102cc57600080fd5b506102d5610e12565b6040516102e29190611a51565b60405180910390f35b3480156102f757600080fd5b50610300610e3c565b60405161030d9190611a8d565b60405180910390f35b34801561032257600080fd5b5061032b610e62565b6040516103389190611a51565b60405180910390f35b34801561034d57600080fd5b5061035661108b565b6040516103639190611a51565b60405180910390f35b34801561037857600080fd5b50610393600480360381019061038e9190611829565b6110b1565b6040516103a09190611aa8565b60405180910390f35b3480156103b557600080fd5b506103be6112ee565b6040516103cb9190611884565b60405180910390f35b3480156103e057600080fd5b506103e9611305565b6040516103f691906119c8565b60405180910390f35b61041960048036038101906104149190611829565b6113c4565b6040516104269190611884565b60405180910390f35b6000805461043c90611af2565b80601f016020809104026020016040519081016040528092919081815260200182805461046890611af2565b80156104b55780601f1061048a576101008083540402835291602001916104b5565b820191906000526020600020905b81548152906001019060200180831161049857829003601f168201915b505050505081565b600047905090565b6060600080546104d490611af2565b80601f016020809104026020016040519081016040528092919081815260200182805461050090611af2565b801561054d5780601f106105225761010080835404028352916020019161054d565b820191906000526020600020905b81548152906001019060200180831161053057829003601f168201915b5050505050905090565b600080600160009054906101000a900473ffffffffffffffffffffffffffffffffffffffff1673ffffffffffffffffffffffffffffffffffffffff1661059b61167c565b73ffffffffffffffffffffffffffffffffffffffff16146105bd5760006105c0565b60015b905080610602576040517f08c379a00000000000000000000000000000000000000000000000000000000081526004016105f990611b95565b60405180910390fd5b82471015610645576040517f08c379a000000000000000000000000000000000000000000000000000000000815260040161063c90611c01565b60405180910390fd5b60008473ffffffffffffffffffffffffffffffffffffffff168460405161066b90611c52565b60006040518083038185875af1925050503d80600081146106a8576040519150601f19603f3d011682016040523d82523d6000602084013e6106ad565b606091505b50509050806106f1576040517f08c379a00000000000000000000000000000000000000000000000000000000081526004016106e890611cb3565b60405180910390fd5b7f26bd074035589e6689bb0db89c84834b00e06bf19a57eab48637d3cd8dbf2ae330868660016040516107279493929190611cd3565b60405180910390a160019250505092915050565b60606000600160009054906101000a900473ffffffffffffffffffffffffffffffffffffffff1673ffffffffffffffffffffffffffffffffffffffff1661078061167c565b73ffffffffffffffffffffffffffffffffffffffff16146107a25760006107a5565b60015b9050806107e7576040517f08c379a00000000000000000000000000000000000000000000000000000000081526004016107de90611b95565b60405180910390fd5b6000806107f385610a00565b91509150600073ffffffffffffffffffffffffffffffffffffffff16826000015173ffffffffffffffffffffffffffffffffffffffff161461086a576040517f08c379a000000000000000000000000000000000000000000000000000000000815260040161086190611d8a565b60405180910390fd5b60008260200151116108b1576040517f08c379a00000000000000000000000000000000000000000000000000000000081526004016108a890611e1c565b60405180910390fd5b600481815481106108c5576108c4611e3c565b5b9060005260206000209060020201600080820160006101000a81549073ffffffffffffffffffffffffffffffffffffffff0219169055600182016000905550507ff93da4a59a937584eca9a6054bd8731085e1c7d8af5209783a2abb15e102a98f3086604051610936929190611e6b565b60405180910390a16004805480602002602001604051908101604052809291908181526020016000905b828210156109f257838290600052602060002090600202016040518060400160405290816000820160009054906101000a900473ffffffffffffffffffffffffffffffffffffffff1673ffffffffffffffffffffffffffffffffffffffff1673ffffffffffffffffffffffffffffffffffffffff16815260200160018201548152505081526020019060010190610960565b505050509350505050919050565b610a08611684565b600080600090505b600480549050811015610b43578373ffffffffffffffffffffffffffffffffffffffff1660048281548110610a4857610a47611e3c565b5b906000526020600020906002020160000160009054906101000a900473ffffffffffffffffffffffffffffffffffffffff1673ffffffffffffffffffffffffffffffffffffffff1603610b305760048181548110610aa957610aa8611e3c565b5b906000526020600020906002020181816040518060400160405290816000820160009054906101000a900473ffffffffffffffffffffffffffffffffffffffff1673ffffffffffffffffffffffffffffffffffffffff1673ffffffffffffffffffffffffffffffffffffffff16815260200160018201548152505091509250925050610b78565b8080610b3b90611ec3565b915050610a10565b506040518060400160405280600073ffffffffffffffffffffffffffffffffffffffff16815260200160008152506000915091505b915091565b600080600160009054906101000a900473ffffffffffffffffffffffffffffffffffffffff1673ffffffffffffffffffffffffffffffffffffffff16610bc161167c565b73ffffffffffffffffffffffffffffffffffffffff1614610be3576000610be6565b60015b905080610c28576040517f08c379a0000000000000000000000000000000000000000000000000000000008152600401610c1f90611b95565b60405180910390fd5b6000600160009054906101000a900473ffffffffffffffffffffffffffffffffffffffff1673ffffffffffffffffffffffffffffffffffffffff166108fc859081150290604051600060405180830381858888f1935050505090508015610d9357600080610c9587610a00565b9150915060405180604001604052808873ffffffffffffffffffffffffffffffffffffffff168152602001878460200151610cd09190611f0b565b81525060048281548110610ce757610ce6611e3c565b5b906000526020600020906002020160008201518160000160006101000a81548173ffffffffffffffffffffffffffffffffffffffff021916908373ffffffffffffffffffffffffffffffffffffffff160217905550602082015181600101559050507f7de9fadad35a83dd3338eef5df3012919ba658514c0ee38b60cf1e5512afe9723088886001604051610d7f9493929190611cd3565b60405180910390a160019450505050610dd7565b7f7de9fadad35a83dd3338eef5df3012919ba658514c0ee38b60cf1e5512afe9723086866000604051610dc99493929190611cd3565b60405180910390a160009250505b5092915050565b6000600354905090565b6000600260009054906101000a900473ffffffffffffffffffffffffffffffffffffffff16905090565b6000600160009054906101000a900473ffffffffffffffffffffffffffffffffffffffff16905090565b600160009054906101000a900473ffffffffffffffffffffffffffffffffffffffff1681565b600080600160009054906101000a900473ffffffffffffffffffffffffffffffffffffffff1673ffffffffffffffffffffffffffffffffffffffff16610ea661167c565b73ffffffffffffffffffffffffffffffffffffffff1614610ec8576000610ecb565b60015b905080610f0d576040517f08c379a0000000000000000000000000000000000000000000000000000000008152600401610f0490611b95565b60405180910390fd5b600080600260009054906101000a900473ffffffffffffffffffffffffffffffffffffffff1673ffffffffffffffffffffffffffffffffffffffff1630600354604051602401610f5e929190611f3f565b6040516020818303038152906040527fe3a4bf29000000000000000000000000000000000000000000000000000000007bffffffffffffffffffffffffffffffffffffffffffffffffffffffff19166020820180517bffffffffffffffffffffffffffffffffffffffffffffffffffffffff8381831617835250505050604051610fe89190611fa4565b6000604051808303816000865af19150503d8060008114611025576040519150601f19603f3d011682016040523d82523d6000602084013e61102a565b606091505b50915091508161106f576040517f08c379a00000000000000000000000000000000000000000000000000000000081526004016110669061202d565b60405180910390fd5b808060200190518101906110839190612079565b935050505090565b600260009054906101000a900473ffffffffffffffffffffffffffffffffffffffff1681565b6110b9611684565b6000600160009054906101000a900473ffffffffffffffffffffffffffffffffffffffff1673ffffffffffffffffffffffffffffffffffffffff166110fc61167c565b73ffffffffffffffffffffffffffffffffffffffff161461111e576000611121565b60015b905080611163576040517f08c379a000000000000000000000000000000000000000000000000000000000815260040161115a90611b95565b60405180910390fd5b600460405180604001604052808673ffffffffffffffffffffffffffffffffffffffff16815260200185815250908060018154018082558091505060019003906000526020600020906002020160009091909190915060008201518160000160006101000a81548173ffffffffffffffffffffffffffffffffffffffff021916908373ffffffffffffffffffffffffffffffffffffffff1602179055506020820151816001015550507f0c8f8aa5ff72e544d1fc13f5df82d1f5a24144dd0128bcb65885473543ab91b030858560405161123f939291906120a6565b60405180910390a16004600160048054905061125b9190611f0b565b8154811061126c5761126b611e3c565b5b90600052602060002090600202016040518060400160405290816000820160009054906101000a900473ffffffffffffffffffffffffffffffffffffffff1673ffffffffffffffffffffffffffffffffffffffff1673ffffffffffffffffffffffffffffffffffffffff16815260200160018201548152505091505092915050565b6000600260149054906101000a900460ff16905090565b60606004805480602002602001604051908101604052809291908181526020016000905b828210156113bb57838290600052602060002090600202016040518060400160405290816000820160009054906101000a900473ffffffffffffffffffffffffffffffffffffffff1673ffffffffffffffffffffffffffffffffffffffff1673ffffffffffffffffffffffffffffffffffffffff16815260200160018201548152505081526020019060010190611329565b50505050905090565b600080600160009054906101000a900473ffffffffffffffffffffffffffffffffffffffff1673ffffffffffffffffffffffffffffffffffffffff1661140861167c565b73ffffffffffffffffffffffffffffffffffffffff161461142a57600061142d565b60015b90508061146f576040517f08c379a000000000000000000000000000000000000000000000000000000000815260040161146690611b95565b60405180910390fd5b60008061147b86610a00565b91509150600073ffffffffffffffffffffffffffffffffffffffff16826000015173ffffffffffffffffffffffffffffffffffffffff16146114f2576040517f08c379a00000000000000000000000000000000000000000000000000000000081526004016114e990611d8a565b60405180910390fd5b6000826000015173ffffffffffffffffffffffffffffffffffffffff166108fc879081150290604051600060405180830381858888f193505050509050801561162f5760405180604001604052808873ffffffffffffffffffffffffffffffffffffffff16815260200187856020015161156c9190611f0b565b8152506004838154811061158357611582611e3c565b5b906000526020600020906002020160008201518160000160006101000a81548173ffffffffffffffffffffffffffffffffffffffff021916908373ffffffffffffffffffffffffffffffffffffffff160217905550602082015181600101559050507f591d3dbd44a185bd80de25b77d81eb65e3244a7f43e1f469e0bfe68dbe4c31e0308888600160405161161b9493929190611cd3565b60405180910390a160019450505050611675565b7f591d3dbd44a185bd80de25b77d81eb65e3244a7f43e1f469e0bfe68dbe4c31e030888860006040516116659493929190611cd3565b60405180910390a1600094505050505b5092915050565b600033905090565b6040518060400160405280600073ffffffffffffffffffffffffffffffffffffffff168152602001600081525090565b600081519050919050565b600082825260208201905092915050565b60005b838110156116ee5780820151818401526020810190506116d3565b60008484015250505050565b6000601f19601f8301169050919050565b6000611716826116b4565b61172081856116bf565b93506117308185602086016116d0565b611739816116fa565b840191505092915050565b6000602082019050818103600083015261175e818461170b565b905092915050565b6000819050919050565b61177981611766565b82525050565b60006020820190506117946000830184611770565b92915050565b600080fd5b600073ffffffffffffffffffffffffffffffffffffffff82169050919050565b60006117ca8261179f565b9050919050565b6117da816117bf565b81146117e557600080fd5b50565b6000813590506117f7816117d1565b92915050565b61180681611766565b811461181157600080fd5b50565b600081359050611823816117fd565b92915050565b600080604083850312156118405761183f61179a565b5b600061184e858286016117e8565b925050602061185f85828601611814565b9150509250929050565b60008115159050919050565b61187e81611869565b82525050565b60006020820190506118996000830184611875565b92915050565b6000602082840312156118b5576118b461179a565b5b60006118c3848285016117e8565b91505092915050565b600081519050919050565b600082825260208201905092915050565b6000819050602082019050919050565b611901816117bf565b82525050565b61191081611766565b82525050565b60408201600082015161192c60008501826118f8565b50602082015161193f6020850182611907565b50505050565b60006119518383611916565b60408301905092915050565b6000602082019050919050565b6000611975826118cc565b61197f81856118d7565b935061198a836118e8565b8060005b838110156119bb5781516119a28882611945565b97506119ad8361195d565b92505060018101905061198e565b5085935050505092915050565b600060208201905081810360008301526119e2818461196a565b905092915050565b604082016000820151611a0060008501826118f8565b506020820151611a136020850182611907565b50505050565b6000606082019050611a2e60008301856119ea565b611a3b6040830184611770565b9392505050565b611a4b816117bf565b82525050565b6000602082019050611a666000830184611a42565b92915050565b6000611a778261179f565b9050919050565b611a8781611a6c565b82525050565b6000602082019050611aa26000830184611a7e565b92915050565b6000604082019050611abd60008301846119ea565b92915050565b7f4e487b7100000000000000000000000000000000000000000000000000000000600052602260045260246000fd5b60006002820490506001821680611b0a57607f821691505b602082108103611b1d57611b1c611ac3565b5b50919050565b7f44796e616d6963506f6f6c204572726f723a204f6e6c79204f776e657220436160008201527f6e206368616e6765204f776e6572000000000000000000000000000000000000602082015250565b6000611b7f602e836116bf565b9150611b8a82611b23565b604082019050919050565b60006020820190508181036000830152611bae81611b72565b9050919050565b7f4e6f7420656e6f7567682062616c616e63652e00000000000000000000000000600082015250565b6000611beb6013836116bf565b9150611bf682611bb5565b602082019050919050565b60006020820190508181036000830152611c1a81611bde565b9050919050565b600081905092915050565b50565b6000611c3c600083611c21565b9150611c4782611c2c565b600082019050919050565b6000611c5d82611c2f565b9150819050919050565b7f5472616e73666572206661696c65642e00000000000000000000000000000000600082015250565b6000611c9d6010836116bf565b9150611ca882611c67565b602082019050919050565b60006020820190508181036000830152611ccc81611c90565b9050919050565b6000608082019050611ce86000830187611a42565b611cf56020830186611a42565b611d026040830185611770565b611d0f6060830184611875565b95945050505050565b7f44796e616d6963506f6f6c204572726f723a2055736572204e6f74204578697360008201527f7420696e2074686973204368616c6c656e676500000000000000000000000000602082015250565b6000611d746033836116bf565b9150611d7f82611d18565b604082019050919050565b60006020820190508181036000830152611da381611d67565b9050919050565b7f44796e616d6963506f6f6c204572726f723a2043616e204e6f742052656d6f7660008201527f6520557365722069662055736572206465706f73697420457869737400000000602082015250565b6000611e06603c836116bf565b9150611e1182611daa565b604082019050919050565b60006020820190508181036000830152611e3581611df9565b9050919050565b7f4e487b7100000000000000000000000000000000000000000000000000000000600052603260045260246000fd5b6000604082019050611e806000830185611a42565b611e8d6020830184611a42565b9392505050565b7f4e487b7100000000000000000000000000000000000000000000000000000000600052601160045260246000fd5b6000611ece82611766565b91507fffffffffffffffffffffffffffffffffffffffffffffffffffffffffffffffff8203611f0057611eff611e94565b5b600182019050919050565b6000611f1682611766565b9150611f2183611766565b9250828203905081811115611f3957611f38611e94565b5b92915050565b6000604082019050611f546000830185611a42565b611f616020830184611770565b9392505050565b600081519050919050565b6000611f7e82611f68565b611f888185611c21565b9350611f988185602086016116d0565b80840191505092915050565b6000611fb08284611f73565b915081905092915050565b7f44796e616d6963506f6f6c204572726f723a2043616e204e6f7420676574205260008201527f65766572736520506f6f6c204164647265737300000000000000000000000000602082015250565b60006120176033836116bf565b915061202282611fbb565b604082019050919050565b600060208201905081810360008301526120468161200a565b9050919050565b61205681611a6c565b811461206157600080fd5b50565b6000815190506120738161204d565b92915050565b60006020828403121561208f5761208e61179a565b5b600061209d84828501612064565b91505092915050565b60006060820190506120bb6000830186611a42565b6120c86020830185611a42565b6120d56040830184611770565b94935050505056fea26469706673582212207ee6a86a46d2bb2b4813875d065d97d62785deda31f5013a70c310e5a80cde7664736f6c63430008140033a2646970667358221220c13403a7378b98333973b60ef233382e19c892ec6497e8232ea4b547fbf9f4b864736f6c63430008140033","opcodes":"PUSH1 0x80 PUSH1 0x40 MSTORE CALLVALUE DUP1 ISZERO PUSH3 0x11 JUMPI PUSH1 0x0 DUP1 REVERT JUMPDEST POP PUSH1 0x40 MLOAD PUSH3 0x3C56 CODESIZE SUB DUP1 PUSH3 0x3C56 DUP4 CODECOPY DUP2 DUP2 ADD PUSH1 0x40 MSTORE DUP2 ADD SWAP1 PUSH3 0x37 SWAP2 SWAP1 PUSH3 0xF0 JUMP JUMPDEST DUP1 PUSH1 0x0 DUP1 PUSH2 0x100 EXP DUP2 SLOAD DUP2 PUSH20 0xFFFFFFFFFFFFFFFFFFFFFFFFFFFFFFFFFFFFFFFF MUL NOT AND SWAP1 DUP4 PUSH20 0xFFFFFFFFFFFFFFFFFFFFFFFFFFFFFFFFFFFFFFFF AND MUL OR SWAP1 SSTORE POP PUSH1 0x0 PUSH1 0x1 DUP2 SWAP1 SSTORE POP POP PUSH3 0x122 JUMP JUMPDEST PUSH1 0x0 DUP1 REVERT JUMPDEST PUSH1 0x0 PUSH20 0xFFFFFFFFFFFFFFFFFFFFFFFFFFFFFFFFFFFFFFFF DUP3 AND SWAP1 POP SWAP2 SWAP1 POP JUMP JUMPDEST PUSH1 0x0 PUSH3 0xB8 DUP3 PUSH3 0x8B JUMP JUMPDEST SWAP1 POP SWAP2 SWAP1 POP JUMP JUMPDEST PUSH3 0xCA DUP2 PUSH3 0xAB JUMP JUMPDEST DUP2 EQ PUSH3 0xD6 JUMPI PUSH1 0x0 DUP1 REVERT JUMPDEST POP JUMP JUMPDEST PUSH1 0x0 DUP2 MLOAD SWAP1 POP PUSH3 0xEA DUP2 PUSH3 0xBF JUMP JUMPDEST SWAP3 SWAP2 POP POP JUMP JUMPDEST PUSH1 0x0 PUSH1 0x20 DUP3 DUP5 SUB SLT ISZERO PUSH3 0x109 JUMPI PUSH3 0x108 PUSH3 0x86 JUMP JUMPDEST JUMPDEST PUSH1 0x0 PUSH3 0x119 DUP5 DUP3 DUP6 ADD PUSH3 0xD9 JUMP JUMPDEST SWAP2 POP POP SWAP3 SWAP2 POP POP JUMP JUMPDEST PUSH2 0x3B24 DUP1 PUSH3 0x132 PUSH1 0x0 CODECOPY PUSH1 0x0 RETURN INVALID PUSH1 0x80 PUSH1 0x40 MSTORE CALLVALUE DUP1 ISZERO PUSH3 0x11 JUMPI PUSH1 0x0 DUP1 REVERT JUMPDEST POP PUSH1 0x4 CALLDATASIZE LT PUSH3 0x8D JUMPI PUSH1 0x0 CALLDATALOAD PUSH1 0xE0 SHR DUP1 PUSH4 0x893D20E8 GT PUSH3 0x63 JUMPI DUP1 PUSH4 0x893D20E8 EQ PUSH3 0x11E JUMPI DUP1 PUSH4 0x9086F772 EQ PUSH3 0x140 JUMPI DUP1 PUSH4 0x9B4ECBBB EQ PUSH3 0x176 JUMPI DUP1 PUSH4 0xA6F9DAE1 EQ PUSH3 0x1AC JUMPI PUSH3 0x8E JUMP JUMPDEST DUP1 PUSH4 0x1BDD4B74 EQ PUSH3 0x90 JUMPI DUP1 PUSH4 0x6BF78C2F EQ PUSH3 0xC6 JUMPI DUP1 PUSH4 0x81045EAD EQ PUSH3 0xFC JUMPI PUSH3 0x8E JUMP JUMPDEST JUMPDEST STOP JUMPDEST PUSH3 0xAE PUSH1 0x4 DUP1 CALLDATASIZE SUB DUP2 ADD SWAP1 PUSH3 0xA8 SWAP2 SWAP1 PUSH3 0xBAB JUMP JUMPDEST PUSH3 0x1CC JUMP JUMPDEST PUSH1 0x40 MLOAD PUSH3 0xBD SWAP2 SWAP1 PUSH3 0xC55 JUMP JUMPDEST PUSH1 0x40 MLOAD DUP1 SWAP2 SUB SWAP1 RETURN JUMPDEST PUSH3 0xE4 PUSH1 0x4 DUP1 CALLDATASIZE SUB DUP2 ADD SWAP1 PUSH3 0xDE SWAP2 SWAP1 PUSH3 0xDD4 JUMP JUMPDEST PUSH3 0x2A7 JUMP JUMPDEST PUSH1 0x40 MLOAD PUSH3 0xF3 SWAP2 SWAP1 PUSH3 0xC55 JUMP JUMPDEST PUSH1 0x40 MLOAD DUP1 SWAP2 SUB SWAP1 RETURN JUMPDEST PUSH3 0x106 PUSH3 0x49C JUMP JUMPDEST PUSH1 0x40 MLOAD PUSH3 0x115 SWAP2 SWAP1 PUSH3 0xE36 JUMP JUMPDEST PUSH1 0x40 MLOAD DUP1 SWAP2 SUB SWAP1 RETURN JUMPDEST PUSH3 0x128 PUSH3 0x4A6 JUMP JUMPDEST PUSH1 0x40 MLOAD PUSH3 0x137 SWAP2 SWAP1 PUSH3 0xE78 JUMP JUMPDEST PUSH1 0x40 MLOAD DUP1 SWAP2 SUB SWAP1 RETURN JUMPDEST PUSH3 0x15E PUSH1 0x4 DUP1 CALLDATASIZE SUB DUP2 ADD SWAP1 PUSH3 0x158 SWAP2 SWAP1 PUSH3 0xEC6 JUMP JUMPDEST PUSH3 0x4CF JUMP JUMPDEST PUSH1 0x40 MLOAD PUSH3 0x16D SWAP2 SWAP1 PUSH3 0xE78 JUMP JUMPDEST PUSH1 0x40 MLOAD DUP1 SWAP2 SUB SWAP1 RETURN JUMPDEST PUSH3 0x194 PUSH1 0x4 DUP1 CALLDATASIZE SUB DUP2 ADD SWAP1 PUSH3 0x18E SWAP2 SWAP1 PUSH3 0xF0D JUMP JUMPDEST PUSH3 0x695 JUMP JUMPDEST PUSH1 0x40 MLOAD PUSH3 0x1A3 SWAP2 SWAP1 PUSH3 0xC55 JUMP JUMPDEST PUSH1 0x40 MLOAD DUP1 SWAP2 SUB SWAP1 RETURN JUMPDEST PUSH3 0x1CA PUSH1 0x4 DUP1 CALLDATASIZE SUB DUP2 ADD SWAP1 PUSH3 0x1C4 SWAP2 SWAP1 PUSH3 0xF69 JUMP JUMPDEST PUSH3 0x8A9 JUMP JUMPDEST STOP JUMPDEST PUSH3 0x1D6 PUSH3 0xB08 JUMP JUMPDEST PUSH1 0x2 PUSH1 0x0 DUP4 DUP2 MSTORE PUSH1 0x20 ADD SWAP1 DUP2 MSTORE PUSH1 0x20 ADD PUSH1 0x0 KECCAK256 PUSH1 0x40 MLOAD DUP1 PUSH1 0x40 ADD PUSH1 0x40 MSTORE SWAP1 DUP2 PUSH1 0x0 DUP3 ADD PUSH1 0x0 SWAP1 SLOAD SWAP1 PUSH2 0x100 EXP SWAP1 DIV PUSH20 0xFFFFFFFFFFFFFFFFFFFFFFFFFFFFFFFFFFFFFFFF AND PUSH20 0xFFFFFFFFFFFFFFFFFFFFFFFFFFFFFFFFFFFFFFFF AND PUSH20 0xFFFFFFFFFFFFFFFFFFFFFFFFFFFFFFFFFFFFFFFF AND DUP2 MSTORE PUSH1 0x20 ADD PUSH1 0x1 DUP3 ADD PUSH1 0x0 SWAP1 SLOAD SWAP1 PUSH2 0x100 EXP SWAP1 DIV PUSH20 0xFFFFFFFFFFFFFFFFFFFFFFFFFFFFFFFFFFFFFFFF AND PUSH20 0xFFFFFFFFFFFFFFFFFFFFFFFFFFFFFFFFFFFFFFFF AND PUSH20 0xFFFFFFFFFFFFFFFFFFFFFFFFFFFFFFFFFFFFFFFF AND DUP2 MSTORE POP POP SWAP1 POP SWAP2 SWAP1 POP JUMP JUMPDEST PUSH3 0x2B1 PUSH3 0xB08 JUMP JUMPDEST PUSH1 0x0 PUSH3 0x2BD PUSH3 0x981 JUMP JUMPDEST SWAP1 POP DUP1 PUSH3 0x302 JUMPI PUSH1 0x40 MLOAD PUSH32 0x8C379A000000000000000000000000000000000000000000000000000000000 DUP2 MSTORE PUSH1 0x4 ADD PUSH3 0x2F9 SWAP1 PUSH3 0x1022 JUMP JUMPDEST PUSH1 0x40 MLOAD DUP1 SWAP2 SUB SWAP1 REVERT JUMPDEST PUSH1 0x1 DUP1 PUSH1 0x0 DUP3 DUP3 SLOAD PUSH3 0x316 SWAP2 SWAP1 PUSH3 0x1073 JUMP JUMPDEST SWAP3 POP POP DUP2 SWAP1 SSTORE POP PUSH1 0x0 DUP4 PUSH1 0x0 DUP1 SLOAD SWAP1 PUSH2 0x100 EXP SWAP1 DIV PUSH20 0xFFFFFFFFFFFFFFFFFFFFFFFFFFFFFFFFFFFFFFFF AND ADDRESS PUSH1 0x1 DUP1 SLOAD PUSH1 0x40 MLOAD PUSH3 0x354 SWAP1 PUSH3 0xB4E JUMP JUMPDEST PUSH3 0x364 SWAP6 SWAP5 SWAP4 SWAP3 SWAP2 SWAP1 PUSH3 0x1154 JUMP JUMPDEST PUSH1 0x40 MLOAD DUP1 SWAP2 SUB SWAP1 PUSH1 0x0 CREATE DUP1 ISZERO DUP1 ISZERO PUSH3 0x381 JUMPI RETURNDATASIZE PUSH1 0x0 DUP1 RETURNDATACOPY RETURNDATASIZE PUSH1 0x0 REVERT JUMPDEST POP SWAP1 POP PUSH1 0x0 DUP5 PUSH1 0x0 DUP1 SLOAD SWAP1 PUSH2 0x100 EXP SWAP1 DIV PUSH20 0xFFFFFFFFFFFFFFFFFFFFFFFFFFFFFFFFFFFFFFFF AND ADDRESS PUSH1 0x0 PUSH1 0x1 SLOAD PUSH1 0x40 MLOAD PUSH3 0x3BC SWAP1 PUSH3 0xB4E JUMP JUMPDEST PUSH3 0x3CC SWAP6 SWAP5 SWAP4 SWAP3 SWAP2 SWAP1 PUSH3 0x1154 JUMP JUMPDEST PUSH1 0x40 MLOAD DUP1 SWAP2 SUB SWAP1 PUSH1 0x0 CREATE DUP1 ISZERO DUP1 ISZERO PUSH3 0x3E9 JUMPI RETURNDATASIZE PUSH1 0x0 DUP1 RETURNDATACOPY RETURNDATASIZE PUSH1 0x0 REVERT JUMPDEST POP SWAP1 POP PUSH1 0x0 PUSH3 0x3FD DUP4 DUP4 PUSH1 0x1 SLOAD PUSH3 0x695 JUMP JUMPDEST SWAP1 POP PUSH1 0x0 DUP1 SLOAD SWAP1 PUSH2 0x100 EXP SWAP1 DIV PUSH20 0xFFFFFFFFFFFFFFFFFFFFFFFFFFFFFFFFFFFFFFFF AND PUSH20 0xFFFFFFFFFFFFFFFFFFFFFFFFFFFFFFFFFFFFFFFF AND DUP3 PUSH20 0xFFFFFFFFFFFFFFFFFFFFFFFFFFFFFFFFFFFFFFFF AND DUP5 PUSH20 0xFFFFFFFFFFFFFFFFFFFFFFFFFFFFFFFFFFFFFFFF AND PUSH32 0x3A919F2DAE35BBFA24FBBA5570C74151C00DECCD003B2770E859DA50AD5C6D8D PUSH1 0x40 MLOAD PUSH1 0x40 MLOAD DUP1 SWAP2 SUB SWAP1 LOG4 DUP1 SWAP5 POP POP POP POP POP SWAP2 SWAP1 POP JUMP JUMPDEST PUSH1 0x0 PUSH1 0x1 SLOAD SWAP1 POP SWAP1 JUMP JUMPDEST PUSH1 0x0 DUP1 PUSH1 0x0 SWAP1 SLOAD SWAP1 PUSH2 0x100 EXP SWAP1 DIV PUSH20 0xFFFFFFFFFFFFFFFFFFFFFFFFFFFFFFFFFFFFFFFF AND SWAP1 POP SWAP1 JUMP JUMPDEST PUSH1 0x0 DUP1 PUSH3 0x4DC PUSH3 0x981 JUMP JUMPDEST SWAP1 POP DUP1 PUSH3 0x521 JUMPI PUSH1 0x40 MLOAD PUSH32 0x8C379A000000000000000000000000000000000000000000000000000000000 DUP2 MSTORE PUSH1 0x4 ADD PUSH3 0x518 SWAP1 PUSH3 0x1022 JUMP JUMPDEST PUSH1 0x40 MLOAD DUP1 SWAP2 SUB SWAP1 REVERT JUMPDEST PUSH3 0x52C DUP4 PUSH3 0x9E5 JUMP JUMPDEST PUSH3 0x56E JUMPI PUSH1 0x40 MLOAD PUSH32 0x8C379A000000000000000000000000000000000000000000000000000000000 DUP2 MSTORE PUSH1 0x4 ADD PUSH3 0x565 SWAP1 PUSH3 0x122E JUMP JUMPDEST PUSH1 0x40 MLOAD DUP1 SWAP2 SUB SWAP1 REVERT JUMPDEST PUSH1 0x0 PUSH1 0x2 PUSH1 0x0 DUP6 DUP2 MSTORE PUSH1 0x20 ADD SWAP1 DUP2 MSTORE PUSH1 0x20 ADD PUSH1 0x0 KECCAK256 PUSH1 0x40 MLOAD DUP1 PUSH1 0x40 ADD PUSH1 0x40 MSTORE SWAP1 DUP2 PUSH1 0x0 DUP3 ADD PUSH1 0x0 SWAP1 SLOAD SWAP1 PUSH2 0x100 EXP SWAP1 DIV PUSH20 0xFFFFFFFFFFFFFFFFFFFFFFFFFFFFFFFFFFFFFFFF AND PUSH20 0xFFFFFFFFFFFFFFFFFFFFFFFFFFFFFFFFFFFFFFFF AND PUSH20 0xFFFFFFFFFFFFFFFFFFFFFFFFFFFFFFFFFFFFFFFF AND DUP2 MSTORE PUSH1 0x20 ADD PUSH1 0x1 DUP3 ADD PUSH1 0x0 SWAP1 SLOAD SWAP1 PUSH2 0x100 EXP SWAP1 DIV PUSH20 0xFFFFFFFFFFFFFFFFFFFFFFFFFFFFFFFFFFFFFFFF AND PUSH20 0xFFFFFFFFFFFFFFFFFFFFFFFFFFFFFFFFFFFFFFFF AND PUSH20 0xFFFFFFFFFFFFFFFFFFFFFFFFFFFFFFFFFFFFFFFF AND DUP2 MSTORE POP POP SWAP1 POP PUSH1 0x0 DUP6 PUSH20 0xFFFFFFFFFFFFFFFFFFFFFFFFFFFFFFFFFFFFFFFF AND DUP3 PUSH1 0x0 ADD MLOAD PUSH20 0xFFFFFFFFFFFFFFFFFFFFFFFFFFFFFFFFFFFFFFFF AND EQ PUSH3 0x681 JUMPI DUP2 PUSH1 0x0 ADD MLOAD PUSH3 0x687 JUMP JUMPDEST DUP2 PUSH1 0x20 ADD MLOAD JUMPDEST SWAP1 POP DUP1 SWAP4 POP POP POP POP SWAP3 SWAP2 POP POP JUMP JUMPDEST PUSH3 0x69F PUSH3 0xB08 JUMP JUMPDEST PUSH1 0x0 PUSH3 0x6AB PUSH3 0x981 JUMP JUMPDEST SWAP1 POP DUP1 PUSH3 0x6F0 JUMPI PUSH1 0x40 MLOAD PUSH32 0x8C379A000000000000000000000000000000000000000000000000000000000 DUP2 MSTORE PUSH1 0x4 ADD PUSH3 0x6E7 SWAP1 PUSH3 0x1022 JUMP JUMPDEST PUSH1 0x40 MLOAD DUP1 SWAP2 SUB SWAP1 REVERT JUMPDEST PUSH1 0x40 MLOAD DUP1 PUSH1 0x40 ADD PUSH1 0x40 MSTORE DUP1 DUP7 PUSH20 0xFFFFFFFFFFFFFFFFFFFFFFFFFFFFFFFFFFFFFFFF AND DUP2 MSTORE PUSH1 0x20 ADD DUP6 PUSH20 0xFFFFFFFFFFFFFFFFFFFFFFFFFFFFFFFFFFFFFFFF AND DUP2 MSTORE POP PUSH1 0x2 PUSH1 0x0 DUP6 DUP2 MSTORE PUSH1 0x20 ADD SWAP1 DUP2 MSTORE PUSH1 0x20 ADD PUSH1 0x0 KECCAK256 PUSH1 0x0 DUP3 ADD MLOAD DUP2 PUSH1 0x0 ADD PUSH1 0x0 PUSH2 0x100 EXP DUP2 SLOAD DUP2 PUSH20 0xFFFFFFFFFFFFFFFFFFFFFFFFFFFFFFFFFFFFFFFF MUL NOT AND SWAP1 DUP4 PUSH20 0xFFFFFFFFFFFFFFFFFFFFFFFFFFFFFFFFFFFFFFFF AND MUL OR SWAP1 SSTORE POP PUSH1 0x20 DUP3 ADD MLOAD DUP2 PUSH1 0x1 ADD PUSH1 0x0 PUSH2 0x100 EXP DUP2 SLOAD DUP2 PUSH20 0xFFFFFFFFFFFFFFFFFFFFFFFFFFFFFFFFFFFFFFFF MUL NOT AND SWAP1 DUP4 PUSH20 0xFFFFFFFFFFFFFFFFFFFFFFFFFFFFFFFFFFFFFFFF AND MUL OR SWAP1 SSTORE POP SWAP1 POP POP PUSH1 0x2 PUSH1 0x0 DUP5 DUP2 MSTORE PUSH1 0x20 ADD SWAP1 DUP2 MSTORE PUSH1 0x20 ADD PUSH1 0x0 KECCAK256 PUSH1 0x40 MLOAD DUP1 PUSH1 0x40 ADD PUSH1 0x40 MSTORE SWAP1 DUP2 PUSH1 0x0 DUP3 ADD PUSH1 0x0 SWAP1 SLOAD SWAP1 PUSH2 0x100 EXP SWAP1 DIV PUSH20 0xFFFFFFFFFFFFFFFFFFFFFFFFFFFFFFFFFFFFFFFF AND PUSH20 0xFFFFFFFFFFFFFFFFFFFFFFFFFFFFFFFFFFFFFFFF AND PUSH20 0xFFFFFFFFFFFFFFFFFFFFFFFFFFFFFFFFFFFFFFFF AND DUP2 MSTORE PUSH1 0x20 ADD PUSH1 0x1 DUP3 ADD PUSH1 0x0 SWAP1 SLOAD SWAP1 PUSH2 0x100 EXP SWAP1 DIV PUSH20 0xFFFFFFFFFFFFFFFFFFFFFFFFFFFFFFFFFFFFFFFF AND PUSH20 0xFFFFFFFFFFFFFFFFFFFFFFFFFFFFFFFFFFFFFFFF AND PUSH20 0xFFFFFFFFFFFFFFFFFFFFFFFFFFFFFFFFFFFFFFFF AND DUP2 MSTORE POP POP SWAP2 POP POP SWAP4 SWAP3 POP POP POP JUMP JUMPDEST PUSH1 0x0 PUSH3 0x8B5 PUSH3 0x981 JUMP JUMPDEST SWAP1 POP DUP1 PUSH3 0x8FA JUMPI PUSH1 0x40 MLOAD PUSH32 0x8C379A000000000000000000000000000000000000000000000000000000000 DUP2 MSTORE PUSH1 0x4 ADD PUSH3 0x8F1 SWAP1 PUSH3 0x1022 JUMP JUMPDEST PUSH1 0x40 MLOAD DUP1 SWAP2 SUB SWAP1 REVERT JUMPDEST DUP2 PUSH1 0x0 DUP1 PUSH2 0x100 EXP DUP2 SLOAD DUP2 PUSH20 0xFFFFFFFFFFFFFFFFFFFFFFFFFFFFFFFFFFFFFFFF MUL NOT AND SWAP1 DUP4 PUSH20 0xFFFFFFFFFFFFFFFFFFFFFFFFFFFFFFFFFFFFFFFF AND MUL OR SWAP1 SSTORE POP DUP2 PUSH20 0xFFFFFFFFFFFFFFFFFFFFFFFFFFFFFFFFFFFFFFFF AND PUSH32 0xA2EA9883A321A3E97B8266C2B078BFEEC6D50C711ED71F874A90D500AE2EAF36 PUSH1 0x40 MLOAD PUSH1 0x40 MLOAD DUP1 SWAP2 SUB SWAP1 LOG2 POP POP JUMP JUMPDEST PUSH1 0x0 DUP1 PUSH1 0x0 DUP1 SLOAD SWAP1 PUSH2 0x100 EXP SWAP1 DIV PUSH20 0xFFFFFFFFFFFFFFFFFFFFFFFFFFFFFFFFFFFFFFFF AND PUSH20 0xFFFFFFFFFFFFFFFFFFFFFFFFFFFFFFFFFFFFFFFF AND PUSH3 0x9C5 PUSH3 0xB00 JUMP JUMPDEST PUSH20 0xFFFFFFFFFFFFFFFFFFFFFFFFFFFFFFFFFFFFFFFF AND EQ SWAP1 POP DUP1 SWAP2 POP POP SWAP1 JUMP JUMPDEST PUSH1 0x0 DUP1 PUSH1 0x2 PUSH1 0x0 DUP5 DUP2 MSTORE PUSH1 0x20 ADD SWAP1 DUP2 MSTORE PUSH1 0x20 ADD PUSH1 0x0 KECCAK256 PUSH1 0x40 MLOAD DUP1 PUSH1 0x40 ADD PUSH1 0x40 MSTORE SWAP1 DUP2 PUSH1 0x0 DUP3 ADD PUSH1 0x0 SWAP1 SLOAD SWAP1 PUSH2 0x100 EXP SWAP1 DIV PUSH20 0xFFFFFFFFFFFFFFFFFFFFFFFFFFFFFFFFFFFFFFFF AND PUSH20 0xFFFFFFFFFFFFFFFFFFFFFFFFFFFFFFFFFFFFFFFF AND PUSH20 0xFFFFFFFFFFFFFFFFFFFFFFFFFFFFFFFFFFFFFFFF AND DUP2 MSTORE PUSH1 0x20 ADD PUSH1 0x1 DUP3 ADD PUSH1 0x0 SWAP1 SLOAD SWAP1 PUSH2 0x100 EXP SWAP1 DIV PUSH20 0xFFFFFFFFFFFFFFFFFFFFFFFFFFFFFFFFFFFFFFFF AND PUSH20 0xFFFFFFFFFFFFFFFFFFFFFFFFFFFFFFFFFFFFFFFF AND PUSH20 0xFFFFFFFFFFFFFFFFFFFFFFFFFFFFFFFFFFFFFFFF AND DUP2 MSTORE POP POP SWAP1 POP PUSH1 0x0 PUSH20 0xFFFFFFFFFFFFFFFFFFFFFFFFFFFFFFFFFFFFFFFF AND DUP2 PUSH1 0x0 ADD MLOAD PUSH20 0xFFFFFFFFFFFFFFFFFFFFFFFFFFFFFFFFFFFFFFFF AND SUB PUSH3 0xAF5 JUMPI PUSH1 0x0 PUSH3 0xAF8 JUMP JUMPDEST PUSH1 0x1 JUMPDEST SWAP2 POP POP SWAP2 SWAP1 POP JUMP JUMPDEST PUSH1 0x0 CALLER SWAP1 POP SWAP1 JUMP JUMPDEST PUSH1 0x40 MLOAD DUP1 PUSH1 0x40 ADD PUSH1 0x40 MSTORE DUP1 PUSH1 0x0 PUSH20 0xFFFFFFFFFFFFFFFFFFFFFFFFFFFFFFFFFFFFFFFF AND DUP2 MSTORE PUSH1 0x20 ADD PUSH1 0x0 PUSH20 0xFFFFFFFFFFFFFFFFFFFFFFFFFFFFFFFFFFFFFFFF AND DUP2 MSTORE POP SWAP1 JUMP JUMPDEST PUSH2 0x289E DUP1 PUSH3 0x1251 DUP4 CODECOPY ADD SWAP1 JUMP JUMPDEST PUSH1 0x0 PUSH1 0x40 MLOAD SWAP1 POP SWAP1 JUMP JUMPDEST PUSH1 0x0 DUP1 REVERT JUMPDEST PUSH1 0x0 DUP1 REVERT JUMPDEST PUSH1 0x0 DUP2 SWAP1 POP SWAP2 SWAP1 POP JUMP JUMPDEST PUSH3 0xB85 DUP2 PUSH3 0xB70 JUMP JUMPDEST DUP2 EQ PUSH3 0xB91 JUMPI PUSH1 0x0 DUP1 REVERT JUMPDEST POP JUMP JUMPDEST PUSH1 0x0 DUP2 CALLDATALOAD SWAP1 POP PUSH3 0xBA5 DUP2 PUSH3 0xB7A JUMP JUMPDEST SWAP3 SWAP2 POP POP JUMP JUMPDEST PUSH1 0x0 PUSH1 0x20 DUP3 DUP5 SUB SLT ISZERO PUSH3 0xBC4 JUMPI PUSH3 0xBC3 PUSH3 0xB66 JUMP JUMPDEST JUMPDEST PUSH1 0x0 PUSH3 0xBD4 DUP5 DUP3 DUP6 ADD PUSH3 0xB94 JUMP JUMPDEST SWAP2 POP POP SWAP3 SWAP2 POP POP JUMP JUMPDEST PUSH1 0x0 PUSH20 0xFFFFFFFFFFFFFFFFFFFFFFFFFFFFFFFFFFFFFFFF DUP3 AND SWAP1 POP SWAP2 SWAP1 POP JUMP JUMPDEST PUSH1 0x0 PUSH3 0xC0A DUP3 PUSH3 0xBDD JUMP JUMPDEST SWAP1 POP SWAP2 SWAP1 POP JUMP JUMPDEST PUSH3 0xC1C DUP2 PUSH3 0xBFD JUMP JUMPDEST DUP3 MSTORE POP POP JUMP JUMPDEST PUSH1 0x40 DUP3 ADD PUSH1 0x0 DUP3 ADD MLOAD PUSH3 0xC3A PUSH1 0x0 DUP6 ADD DUP3 PUSH3 0xC11 JUMP JUMPDEST POP PUSH1 0x20 DUP3 ADD MLOAD PUSH3 0xC4F PUSH1 0x20 DUP6 ADD DUP3 PUSH3 0xC11 JUMP JUMPDEST POP POP POP POP JUMP JUMPDEST PUSH1 0x0 PUSH1 0x40 DUP3 ADD SWAP1 POP PUSH3 0xC6C PUSH1 0x0 DUP4 ADD DUP5 PUSH3 0xC22 JUMP JUMPDEST SWAP3 SWAP2 POP POP JUMP JUMPDEST PUSH1 0x0 DUP1 REVERT JUMPDEST PUSH1 0x0 DUP1 REVERT JUMPDEST PUSH1 0x0 PUSH1 0x1F NOT PUSH1 0x1F DUP4 ADD AND SWAP1 POP SWAP2 SWAP1 POP JUMP JUMPDEST PUSH32 0x4E487B7100000000000000000000000000000000000000000000000000000000 PUSH1 0x0 MSTORE PUSH1 0x41 PUSH1 0x4 MSTORE PUSH1 0x24 PUSH1 0x0 REVERT JUMPDEST PUSH3 0xCC7 DUP3 PUSH3 0xC7C JUMP JUMPDEST DUP2 ADD DUP2 DUP2 LT PUSH8 0xFFFFFFFFFFFFFFFF DUP3 GT OR ISZERO PUSH3 0xCE9 JUMPI PUSH3 0xCE8 PUSH3 0xC8D JUMP JUMPDEST JUMPDEST DUP1 PUSH1 0x40 MSTORE POP POP POP JUMP JUMPDEST PUSH1 0x0 PUSH3 0xCFE PUSH3 0xB5C JUMP JUMPDEST SWAP1 POP PUSH3 0xD0C DUP3 DUP3 PUSH3 0xCBC JUMP JUMPDEST SWAP2 SWAP1 POP JUMP JUMPDEST PUSH1 0x0 PUSH8 0xFFFFFFFFFFFFFFFF DUP3 GT ISZERO PUSH3 0xD2F JUMPI PUSH3 0xD2E PUSH3 0xC8D JUMP JUMPDEST JUMPDEST PUSH3 0xD3A DUP3 PUSH3 0xC7C JUMP JUMPDEST SWAP1 POP PUSH1 0x20 DUP2 ADD SWAP1 POP SWAP2 SWAP1 POP JUMP JUMPDEST DUP3 DUP2 DUP4 CALLDATACOPY PUSH1 0x0 DUP4 DUP4 ADD MSTORE POP POP POP JUMP JUMPDEST PUSH1 0x0 PUSH3 0xD6D PUSH3 0xD67 DUP5 PUSH3 0xD11 JUMP JUMPDEST PUSH3 0xCF2 JUMP JUMPDEST SWAP1 POP DUP3 DUP2 MSTORE PUSH1 0x20 DUP2 ADD DUP5 DUP5 DUP5 ADD GT ISZERO PUSH3 0xD8C JUMPI PUSH3 0xD8B PUSH3 0xC77 JUMP JUMPDEST JUMPDEST PUSH3 0xD99 DUP5 DUP3 DUP6 PUSH3 0xD47 JUMP JUMPDEST POP SWAP4 SWAP3 POP POP POP JUMP JUMPDEST PUSH1 0x0 DUP3 PUSH1 0x1F DUP4 ADD SLT PUSH3 0xDB9 JUMPI PUSH3 0xDB8 PUSH3 0xC72 JUMP JUMPDEST JUMPDEST DUP2 CALLDATALOAD PUSH3 0xDCB DUP5 DUP3 PUSH1 0x20 DUP7 ADD PUSH3 0xD56 JUMP JUMPDEST SWAP2 POP POP SWAP3 SWAP2 POP POP JUMP JUMPDEST PUSH1 0x0 PUSH1 0x20 DUP3 DUP5 SUB SLT ISZERO PUSH3 0xDED JUMPI PUSH3 0xDEC PUSH3 0xB66 JUMP JUMPDEST JUMPDEST PUSH1 0x0 DUP3 ADD CALLDATALOAD PUSH8 0xFFFFFFFFFFFFFFFF DUP2 GT ISZERO PUSH3 0xE0E JUMPI PUSH3 0xE0D PUSH3 0xB6B JUMP JUMPDEST JUMPDEST PUSH3 0xE1C DUP5 DUP3 DUP6 ADD PUSH3 0xDA1 JUMP JUMPDEST SWAP2 POP POP SWAP3 SWAP2 POP POP JUMP JUMPDEST PUSH3 0xE30 DUP2 PUSH3 0xB70 JUMP JUMPDEST DUP3 MSTORE POP POP JUMP JUMPDEST PUSH1 0x0 PUSH1 0x20 DUP3 ADD SWAP1 POP PUSH3 0xE4D PUSH1 0x0 DUP4 ADD DUP5 PUSH3 0xE25 JUMP JUMPDEST SWAP3 SWAP2 POP POP JUMP JUMPDEST PUSH1 0x0 PUSH3 0xE60 DUP3 PUSH3 0xBDD JUMP JUMPDEST SWAP1 POP SWAP2 SWAP1 POP JUMP JUMPDEST PUSH3 0xE72 DUP2 PUSH3 0xE53 JUMP JUMPDEST DUP3 MSTORE POP POP JUMP JUMPDEST PUSH1 0x0 PUSH1 0x20 DUP3 ADD SWAP1 POP PUSH3 0xE8F PUSH1 0x0 DUP4 ADD DUP5 PUSH3 0xE67 JUMP JUMPDEST SWAP3 SWAP2 POP POP JUMP JUMPDEST PUSH3 0xEA0 DUP2 PUSH3 0xE53 JUMP JUMPDEST DUP2 EQ PUSH3 0xEAC JUMPI PUSH1 0x0 DUP1 REVERT JUMPDEST POP JUMP JUMPDEST PUSH1 0x0 DUP2 CALLDATALOAD SWAP1 POP PUSH3 0xEC0 DUP2 PUSH3 0xE95 JUMP JUMPDEST SWAP3 SWAP2 POP POP JUMP JUMPDEST PUSH1 0x0 DUP1 PUSH1 0x40 DUP4 DUP6 SUB SLT ISZERO PUSH3 0xEE0 JUMPI PUSH3 0xEDF PUSH3 0xB66 JUMP JUMPDEST JUMPDEST PUSH1 0x0 PUSH3 0xEF0 DUP6 DUP3 DUP7 ADD PUSH3 0xEAF JUMP JUMPDEST SWAP3 POP POP PUSH1 0x20 PUSH3 0xF03 DUP6 DUP3 DUP7 ADD PUSH3 0xB94 JUMP JUMPDEST SWAP2 POP POP SWAP3 POP SWAP3 SWAP1 POP JUMP JUMPDEST PUSH1 0x0 DUP1 PUSH1 0x0 PUSH1 0x60 DUP5 DUP7 SUB SLT ISZERO PUSH3 0xF29 JUMPI PUSH3 0xF28 PUSH3 0xB66 JUMP JUMPDEST JUMPDEST PUSH1 0x0 PUSH3 0xF39 DUP7 DUP3 DUP8 ADD PUSH3 0xEAF JUMP JUMPDEST SWAP4 POP POP PUSH1 0x20 PUSH3 0xF4C DUP7 DUP3 DUP8 ADD PUSH3 0xEAF JUMP JUMPDEST SWAP3 POP POP PUSH1 0x40 PUSH3 0xF5F DUP7 DUP3 DUP8 ADD PUSH3 0xB94 JUMP JUMPDEST SWAP2 POP POP SWAP3 POP SWAP3 POP SWAP3 JUMP JUMPDEST PUSH1 0x0 PUSH1 0x20 DUP3 DUP5 SUB SLT ISZERO PUSH3 0xF82 JUMPI PUSH3 0xF81 PUSH3 0xB66 JUMP JUMPDEST JUMPDEST PUSH1 0x0 PUSH3 0xF92 DUP5 DUP3 DUP6 ADD PUSH3 0xEAF JUMP JUMPDEST SWAP2 POP POP SWAP3 SWAP2 POP POP JUMP JUMPDEST PUSH1 0x0 DUP3 DUP3 MSTORE PUSH1 0x20 DUP3 ADD SWAP1 POP SWAP3 SWAP2 POP POP JUMP JUMPDEST PUSH32 0x44796E616D6963506F6F6C466163746F7279204572726F723A204F6E6C79204F PUSH1 0x0 DUP3 ADD MSTORE PUSH32 0x776E65722043616E206368616E6765204F776E65720000000000000000000000 PUSH1 0x20 DUP3 ADD MSTORE POP JUMP JUMPDEST PUSH1 0x0 PUSH3 0x100A PUSH1 0x35 DUP4 PUSH3 0xF9B JUMP JUMPDEST SWAP2 POP PUSH3 0x1017 DUP3 PUSH3 0xFAC JUMP JUMPDEST PUSH1 0x40 DUP3 ADD SWAP1 POP SWAP2 SWAP1 POP JUMP JUMPDEST PUSH1 0x0 PUSH1 0x20 DUP3 ADD SWAP1 POP DUP2 DUP2 SUB PUSH1 0x0 DUP4 ADD MSTORE PUSH3 0x103D DUP2 PUSH3 0xFFB JUMP JUMPDEST SWAP1 POP SWAP2 SWAP1 POP JUMP JUMPDEST PUSH32 0x4E487B7100000000000000000000000000000000000000000000000000000000 PUSH1 0x0 MSTORE PUSH1 0x11 PUSH1 0x4 MSTORE PUSH1 0x24 PUSH1 0x0 REVERT JUMPDEST PUSH1 0x0 PUSH3 0x1080 DUP3 PUSH3 0xB70 JUMP JUMPDEST SWAP2 POP PUSH3 0x108D DUP4 PUSH3 0xB70 JUMP JUMPDEST SWAP3 POP DUP3 DUP3 ADD SWAP1 POP DUP1 DUP3 GT ISZERO PUSH3 0x10A8 JUMPI PUSH3 0x10A7 PUSH3 0x1044 JUMP JUMPDEST JUMPDEST SWAP3 SWAP2 POP POP JUMP JUMPDEST PUSH1 0x0 DUP2 MLOAD SWAP1 POP SWAP2 SWAP1 POP JUMP JUMPDEST PUSH1 0x0 JUMPDEST DUP4 DUP2 LT ISZERO PUSH3 0x10D9 JUMPI DUP1 DUP3 ADD MLOAD DUP2 DUP5 ADD MSTORE PUSH1 0x20 DUP2 ADD SWAP1 POP PUSH3 0x10BC JUMP JUMPDEST PUSH1 0x0 DUP5 DUP5 ADD MSTORE POP POP POP POP JUMP JUMPDEST PUSH1 0x0 PUSH3 0x10F2 DUP3 PUSH3 0x10AE JUMP JUMPDEST PUSH3 0x10FE DUP2 DUP6 PUSH3 0xF9B JUMP JUMPDEST SWAP4 POP PUSH3 0x1110 DUP2 DUP6 PUSH1 0x20 DUP7 ADD PUSH3 0x10B9 JUMP JUMPDEST PUSH3 0x111B DUP2 PUSH3 0xC7C JUMP JUMPDEST DUP5 ADD SWAP2 POP POP SWAP3 SWAP2 POP POP JUMP JUMPDEST PUSH3 0x1131 DUP2 PUSH3 0xBFD JUMP JUMPDEST DUP3 MSTORE POP POP JUMP JUMPDEST PUSH1 0x0 DUP2 ISZERO ISZERO SWAP1 POP SWAP2 SWAP1 POP JUMP JUMPDEST PUSH3 0x114E DUP2 PUSH3 0x1137 JUMP JUMPDEST DUP3 MSTORE POP POP JUMP JUMPDEST PUSH1 0x0 PUSH1 0xA0 DUP3 ADD SWAP1 POP DUP2 DUP2 SUB PUSH1 0x0 DUP4 ADD MSTORE PUSH3 0x1170 DUP2 DUP9 PUSH3 0x10E5 JUMP JUMPDEST SWAP1 POP PUSH3 0x1181 PUSH1 0x20 DUP4 ADD DUP8 PUSH3 0x1126 JUMP JUMPDEST PUSH3 0x1190 PUSH1 0x40 DUP4 ADD DUP7 PUSH3 0xE67 JUMP JUMPDEST PUSH3 0x119F PUSH1 0x60 DUP4 ADD DUP6 PUSH3 0x1143 JUMP JUMPDEST PUSH3 0x11AE PUSH1 0x80 DUP4 ADD DUP5 PUSH3 0xE25 JUMP JUMPDEST SWAP7 SWAP6 POP POP POP POP POP POP JUMP JUMPDEST PUSH32 0x44796E616D6963506F6F6C466163746F7279204572726F723A204368616C6C65 PUSH1 0x0 DUP3 ADD MSTORE PUSH32 0x6E676520496E646578206973206E6F7420457869737400000000000000000000 PUSH1 0x20 DUP3 ADD MSTORE POP JUMP JUMPDEST PUSH1 0x0 PUSH3 0x1216 PUSH1 0x36 DUP4 PUSH3 0xF9B JUMP JUMPDEST SWAP2 POP PUSH3 0x1223 DUP3 PUSH3 0x11B8 JUMP JUMPDEST PUSH1 0x40 DUP3 ADD SWAP1 POP SWAP2 SWAP1 POP JUMP JUMPDEST PUSH1 0x0 PUSH1 0x20 DUP3 ADD SWAP1 POP DUP2 DUP2 SUB PUSH1 0x0 DUP4 ADD MSTORE PUSH3 0x1249 DUP2 PUSH3 0x1207 JUMP JUMPDEST SWAP1 POP SWAP2 SWAP1 POP JUMP INVALID PUSH1 0x80 PUSH1 0x40 MSTORE CALLVALUE DUP1 ISZERO PUSH3 0x11 JUMPI PUSH1 0x0 DUP1 REVERT JUMPDEST POP PUSH1 0x40 MLOAD PUSH3 0x289E CODESIZE SUB DUP1 PUSH3 0x289E DUP4 CODECOPY DUP2 DUP2 ADD PUSH1 0x40 MSTORE DUP2 ADD SWAP1 PUSH3 0x37 SWAP2 SWAP1 PUSH3 0x3AC JUMP JUMPDEST DUP5 PUSH1 0x0 SWAP1 DUP2 PUSH3 0x48 SWAP2 SWAP1 PUSH3 0x694 JUMP JUMPDEST POP DUP4 PUSH1 0x1 PUSH1 0x0 PUSH2 0x100 EXP DUP2 SLOAD DUP2 PUSH20 0xFFFFFFFFFFFFFFFFFFFFFFFFFFFFFFFFFFFFFFFF MUL NOT AND SWAP1 DUP4 PUSH20 0xFFFFFFFFFFFFFFFFFFFFFFFFFFFFFFFFFFFFFFFF AND MUL OR SWAP1 SSTORE POP DUP3 PUSH1 0x2 PUSH1 0x0 PUSH2 0x100 EXP DUP2 SLOAD DUP2 PUSH20 0xFFFFFFFFFFFFFFFFFFFFFFFFFFFFFFFFFFFFFFFF MUL NOT AND SWAP1 DUP4 PUSH20 0xFFFFFFFFFFFFFFFFFFFFFFFFFFFFFFFFFFFFFFFF AND MUL OR SWAP1 SSTORE POP DUP2 PUSH1 0x2 PUSH1 0x14 PUSH2 0x100 EXP DUP2 SLOAD DUP2 PUSH1 0xFF MUL NOT AND SWAP1 DUP4 ISZERO ISZERO MUL OR SWAP1 SSTORE POP DUP1 PUSH1 0x3 DUP2 SWAP1 SSTORE POP POP POP POP POP POP PUSH3 0x77B JUMP JUMPDEST PUSH1 0x0 PUSH1 0x40 MLOAD SWAP1 POP SWAP1 JUMP JUMPDEST PUSH1 0x0 DUP1 REVERT JUMPDEST PUSH1 0x0 DUP1 REVERT JUMPDEST PUSH1 0x0 DUP1 REVERT JUMPDEST PUSH1 0x0 DUP1 REVERT JUMPDEST PUSH1 0x0 PUSH1 0x1F NOT PUSH1 0x1F DUP4 ADD AND SWAP1 POP SWAP2 SWAP1 POP JUMP JUMPDEST PUSH32 0x4E487B7100000000000000000000000000000000000000000000000000000000 PUSH1 0x0 MSTORE PUSH1 0x41 PUSH1 0x4 MSTORE PUSH1 0x24 PUSH1 0x0 REVERT JUMPDEST PUSH3 0x160 DUP3 PUSH3 0x115 JUMP JUMPDEST DUP2 ADD DUP2 DUP2 LT PUSH8 0xFFFFFFFFFFFFFFFF DUP3 GT OR ISZERO PUSH3 0x182 JUMPI PUSH3 0x181 PUSH3 0x126 JUMP JUMPDEST JUMPDEST DUP1 PUSH1 0x40 MSTORE POP POP POP JUMP JUMPDEST PUSH1 0x0 PUSH3 0x197 PUSH3 0xF7 JUMP JUMPDEST SWAP1 POP PUSH3 0x1A5 DUP3 DUP3 PUSH3 0x155 JUMP JUMPDEST SWAP2 SWAP1 POP JUMP JUMPDEST PUSH1 0x0 PUSH8 0xFFFFFFFFFFFFFFFF DUP3 GT ISZERO PUSH3 0x1C8 JUMPI PUSH3 0x1C7 PUSH3 0x126 JUMP JUMPDEST JUMPDEST PUSH3 0x1D3 DUP3 PUSH3 0x115 JUMP JUMPDEST SWAP1 POP PUSH1 0x20 DUP2 ADD SWAP1 POP SWAP2 SWAP1 POP JUMP JUMPDEST PUSH1 0x0 JUMPDEST DUP4 DUP2 LT ISZERO PUSH3 0x200 JUMPI DUP1 DUP3 ADD MLOAD DUP2 DUP5 ADD MSTORE PUSH1 0x20 DUP2 ADD SWAP1 POP PUSH3 0x1E3 JUMP JUMPDEST PUSH1 0x0 DUP5 DUP5 ADD MSTORE POP POP POP POP JUMP JUMPDEST PUSH1 0x0 PUSH3 0x223 PUSH3 0x21D DUP5 PUSH3 0x1AA JUMP JUMPDEST PUSH3 0x18B JUMP JUMPDEST SWAP1 POP DUP3 DUP2 MSTORE PUSH1 0x20 DUP2 ADD DUP5 DUP5 DUP5 ADD GT ISZERO PUSH3 0x242 JUMPI PUSH3 0x241 PUSH3 0x110 JUMP JUMPDEST JUMPDEST PUSH3 0x24F DUP5 DUP3 DUP6 PUSH3 0x1E0 JUMP JUMPDEST POP SWAP4 SWAP3 POP POP POP JUMP JUMPDEST PUSH1 0x0 DUP3 PUSH1 0x1F DUP4 ADD SLT PUSH3 0x26F JUMPI PUSH3 0x26E PUSH3 0x10B JUMP JUMPDEST JUMPDEST DUP2 MLOAD PUSH3 0x281 DUP5 DUP3 PUSH1 0x20 DUP7 ADD PUSH3 0x20C JUMP JUMPDEST SWAP2 POP POP SWAP3 SWAP2 POP POP JUMP JUMPDEST PUSH1 0x0 PUSH20 0xFFFFFFFFFFFFFFFFFFFFFFFFFFFFFFFFFFFFFFFF DUP3 AND SWAP1 POP SWAP2 SWAP1 POP JUMP JUMPDEST PUSH1 0x0 PUSH3 0x2B7 DUP3 PUSH3 0x28A JUMP JUMPDEST SWAP1 POP SWAP2 SWAP1 POP JUMP JUMPDEST PUSH3 0x2C9 DUP2 PUSH3 0x2AA JUMP JUMPDEST DUP2 EQ PUSH3 0x2D5 JUMPI PUSH1 0x0 DUP1 REVERT JUMPDEST POP JUMP JUMPDEST PUSH1 0x0 DUP2 MLOAD SWAP1 POP PUSH3 0x2E9 DUP2 PUSH3 0x2BE JUMP JUMPDEST SWAP3 SWAP2 POP POP JUMP JUMPDEST PUSH1 0x0 PUSH3 0x2FC DUP3 PUSH3 0x28A JUMP JUMPDEST SWAP1 POP SWAP2 SWAP1 POP JUMP JUMPDEST PUSH3 0x30E DUP2 PUSH3 0x2EF JUMP JUMPDEST DUP2 EQ PUSH3 0x31A JUMPI PUSH1 0x0 DUP1 REVERT JUMPDEST POP JUMP JUMPDEST PUSH1 0x0 DUP2 MLOAD SWAP1 POP PUSH3 0x32E DUP2 PUSH3 0x303 JUMP JUMPDEST SWAP3 SWAP2 POP POP JUMP JUMPDEST PUSH1 0x0 DUP2 ISZERO ISZERO SWAP1 POP SWAP2 SWAP1 POP JUMP JUMPDEST PUSH3 0x34B DUP2 PUSH3 0x334 JUMP JUMPDEST DUP2 EQ PUSH3 0x357 JUMPI PUSH1 0x0 DUP1 REVERT JUMPDEST POP JUMP JUMPDEST PUSH1 0x0 DUP2 MLOAD SWAP1 POP PUSH3 0x36B DUP2 PUSH3 0x340 JUMP JUMPDEST SWAP3 SWAP2 POP POP JUMP JUMPDEST PUSH1 0x0 DUP2 SWAP1 POP SWAP2 SWAP1 POP JUMP JUMPDEST PUSH3 0x386 DUP2 PUSH3 0x371 JUMP JUMPDEST DUP2 EQ PUSH3 0x392 JUMPI PUSH1 0x0 DUP1 REVERT JUMPDEST POP JUMP JUMPDEST PUSH1 0x0 DUP2 MLOAD SWAP1 POP PUSH3 0x3A6 DUP2 PUSH3 0x37B JUMP JUMPDEST SWAP3 SWAP2 POP POP JUMP JUMPDEST PUSH1 0x0 DUP1 PUSH1 0x0 DUP1 PUSH1 0x0 PUSH1 0xA0 DUP7 DUP9 SUB SLT ISZERO PUSH3 0x3CB JUMPI PUSH3 0x3CA PUSH3 0x101 JUMP JUMPDEST JUMPDEST PUSH1 0x0 DUP7 ADD MLOAD PUSH8 0xFFFFFFFFFFFFFFFF DUP2 GT ISZERO PUSH3 0x3EC JUMPI PUSH3 0x3EB PUSH3 0x106 JUMP JUMPDEST JUMPDEST PUSH3 0x3FA DUP9 DUP3 DUP10 ADD PUSH3 0x257 JUMP JUMPDEST SWAP6 POP POP PUSH1 0x20 PUSH3 0x40D DUP9 DUP3 DUP10 ADD PUSH3 0x2D8 JUMP JUMPDEST SWAP5 POP POP PUSH1 0x40 PUSH3 0x420 DUP9 DUP3 DUP10 ADD PUSH3 0x31D JUMP JUMPDEST SWAP4 POP POP PUSH1 0x60 PUSH3 0x433 DUP9 DUP3 DUP10 ADD PUSH3 0x35A JUMP JUMPDEST SWAP3 POP POP PUSH1 0x80 PUSH3 0x446 DUP9 DUP3 DUP10 ADD PUSH3 0x395 JUMP JUMPDEST SWAP2 POP POP SWAP3 SWAP6 POP SWAP3 SWAP6 SWAP1 SWAP4 POP JUMP JUMPDEST PUSH1 0x0 DUP2 MLOAD SWAP1 POP SWAP2 SWAP1 POP JUMP JUMPDEST PUSH32 0x4E487B7100000000000000000000000000000000000000000000000000000000 PUSH1 0x0 MSTORE PUSH1 0x22 PUSH1 0x4 MSTORE PUSH1 0x24 PUSH1 0x0 REVERT JUMPDEST PUSH1 0x0 PUSH1 0x2 DUP3 DIV SWAP1 POP PUSH1 0x1 DUP3 AND DUP1 PUSH3 0x4A6 JUMPI PUSH1 0x7F DUP3 AND SWAP2 POP JUMPDEST PUSH1 0x20 DUP3 LT DUP2 SUB PUSH3 0x4BC JUMPI PUSH3 0x4BB PUSH3 0x45E JUMP JUMPDEST JUMPDEST POP SWAP2 SWAP1 POP JUMP JUMPDEST PUSH1 0x0 DUP2 SWAP1 POP DUP2 PUSH1 0x0 MSTORE PUSH1 0x20 PUSH1 0x0 KECCAK256 SWAP1 POP SWAP2 SWAP1 POP JUMP JUMPDEST PUSH1 0x0 PUSH1 0x20 PUSH1 0x1F DUP4 ADD DIV SWAP1 POP SWAP2 SWAP1 POP JUMP JUMPDEST PUSH1 0x0 DUP3 DUP3 SHL SWAP1 POP SWAP3 SWAP2 POP POP JUMP JUMPDEST PUSH1 0x0 PUSH1 0x8 DUP4 MUL PUSH3 0x526 PUSH32 0xFFFFFFFFFFFFFFFFFFFFFFFFFFFFFFFFFFFFFFFFFFFFFFFFFFFFFFFFFFFFFFFF DUP3 PUSH3 0x4E7 JUMP JUMPDEST PUSH3 0x532 DUP7 DUP4 PUSH3 0x4E7 JUMP JUMPDEST SWAP6 POP DUP1 NOT DUP5 AND SWAP4 POP DUP1 DUP7 AND DUP5 OR SWAP3 POP POP POP SWAP4 SWAP3 POP POP POP JUMP JUMPDEST PUSH1 0x0 DUP2 SWAP1 POP SWAP2 SWAP1 POP JUMP JUMPDEST PUSH1 0x0 PUSH3 0x575 PUSH3 0x56F PUSH3 0x569 DUP5 PUSH3 0x371 JUMP JUMPDEST PUSH3 0x54A JUMP JUMPDEST PUSH3 0x371 JUMP JUMPDEST SWAP1 POP SWAP2 SWAP1 POP JUMP JUMPDEST PUSH1 0x0 DUP2 SWAP1 POP SWAP2 SWAP1 POP JUMP JUMPDEST PUSH3 0x591 DUP4 PUSH3 0x554 JUMP JUMPDEST PUSH3 0x5A9 PUSH3 0x5A0 DUP3 PUSH3 0x57C JUMP JUMPDEST DUP5 DUP5 SLOAD PUSH3 0x4F4 JUMP JUMPDEST DUP3 SSTORE POP POP POP POP JUMP JUMPDEST PUSH1 0x0 SWAP1 JUMP JUMPDEST PUSH3 0x5C0 PUSH3 0x5B1 JUMP JUMPDEST PUSH3 0x5CD DUP2 DUP5 DUP5 PUSH3 0x586 JUMP JUMPDEST POP POP POP JUMP JUMPDEST JUMPDEST DUP2 DUP2 LT ISZERO PUSH3 0x5F5 JUMPI PUSH3 0x5E9 PUSH1 0x0 DUP3 PUSH3 0x5B6 JUMP JUMPDEST PUSH1 0x1 DUP2 ADD SWAP1 POP PUSH3 0x5D3 JUMP JUMPDEST POP POP JUMP JUMPDEST PUSH1 0x1F DUP3 GT ISZERO PUSH3 0x644 JUMPI PUSH3 0x60E DUP2 PUSH3 0x4C2 JUMP JUMPDEST PUSH3 0x619 DUP5 PUSH3 0x4D7 JUMP JUMPDEST DUP2 ADD PUSH1 0x20 DUP6 LT ISZERO PUSH3 0x629 JUMPI DUP2 SWAP1 POP JUMPDEST PUSH3 0x641 PUSH3 0x638 DUP6 PUSH3 0x4D7 JUMP JUMPDEST DUP4 ADD DUP3 PUSH3 0x5D2 JUMP JUMPDEST POP POP JUMPDEST POP POP POP JUMP JUMPDEST PUSH1 0x0 DUP3 DUP3 SHR SWAP1 POP SWAP3 SWAP2 POP POP JUMP JUMPDEST PUSH1 0x0 PUSH3 0x669 PUSH1 0x0 NOT DUP5 PUSH1 0x8 MUL PUSH3 0x649 JUMP JUMPDEST NOT DUP1 DUP4 AND SWAP2 POP POP SWAP3 SWAP2 POP POP JUMP JUMPDEST PUSH1 0x0 PUSH3 0x684 DUP4 DUP4 PUSH3 0x656 JUMP JUMPDEST SWAP2 POP DUP3 PUSH1 0x2 MUL DUP3 OR SWAP1 POP SWAP3 SWAP2 POP POP JUMP JUMPDEST PUSH3 0x69F DUP3 PUSH3 0x453 JUMP JUMPDEST PUSH8 0xFFFFFFFFFFFFFFFF DUP2 GT ISZERO PUSH3 0x6BB JUMPI PUSH3 0x6BA PUSH3 0x126 JUMP JUMPDEST JUMPDEST PUSH3 0x6C7 DUP3 SLOAD PUSH3 0x48D JUMP JUMPDEST PUSH3 0x6D4 DUP3 DUP3 DUP6 PUSH3 0x5F9 JUMP JUMPDEST PUSH1 0x0 PUSH1 0x20 SWAP1 POP PUSH1 0x1F DUP4 GT PUSH1 0x1 DUP2 EQ PUSH3 0x70C JUMPI PUSH1 0x0 DUP5 ISZERO PUSH3 0x6F7 JUMPI DUP3 DUP8 ADD MLOAD SWAP1 POP JUMPDEST PUSH3 0x703 DUP6 DUP3 PUSH3 0x676 JUMP JUMPDEST DUP7 SSTORE POP PUSH3 0x773 JUMP JUMPDEST PUSH1 0x1F NOT DUP5 AND PUSH3 0x71C DUP7 PUSH3 0x4C2 JUMP JUMPDEST PUSH1 0x0 JUMPDEST DUP3 DUP2 LT ISZERO PUSH3 0x746 JUMPI DUP5 DUP10 ADD MLOAD DUP3 SSTORE PUSH1 0x1 DUP3 ADD SWAP2 POP PUSH1 0x20 DUP6 ADD SWAP5 POP PUSH1 0x20 DUP2 ADD SWAP1 POP PUSH3 0x71F JUMP JUMPDEST DUP7 DUP4 LT ISZERO PUSH3 0x766 JUMPI DUP5 DUP10 ADD MLOAD PUSH3 0x762 PUSH1 0x1F DUP10 AND DUP3 PUSH3 0x656 JUMP JUMPDEST DUP4 SSTORE POP JUMPDEST PUSH1 0x1 PUSH1 0x2 DUP9 MUL ADD DUP9 SSTORE POP POP POP JUMPDEST POP POP POP POP POP POP JUMP JUMPDEST PUSH2 0x2113 DUP1 PUSH3 0x78B PUSH1 0x0 CODECOPY PUSH1 0x0 RETURN INVALID PUSH1 0x80 PUSH1 0x40 MSTORE PUSH1 0x4 CALLDATASIZE LT PUSH2 0x102 JUMPI PUSH1 0x0 CALLDATALOAD PUSH1 0xE0 SHR DUP1 PUSH4 0x88CC58E4 GT PUSH2 0x95 JUMPI DUP1 PUSH4 0xC45A0155 GT PUSH2 0x64 JUMPI DUP1 PUSH4 0xC45A0155 EQ PUSH2 0x341 JUMPI DUP1 PUSH4 0xD3017193 EQ PUSH2 0x36C JUMPI DUP1 PUSH4 0xD92CA747 EQ PUSH2 0x3A9 JUMPI DUP1 PUSH4 0xE2842D79 EQ PUSH2 0x3D4 JUMPI DUP1 PUSH4 0xE992ECC8 EQ PUSH2 0x3FF JUMPI PUSH2 0x109 JUMP JUMPDEST DUP1 PUSH4 0x88CC58E4 EQ PUSH2 0x295 JUMPI DUP1 PUSH4 0x893D20E8 EQ PUSH2 0x2C0 JUMPI DUP1 PUSH4 0x8DA5CB5B EQ PUSH2 0x2EB JUMPI DUP1 PUSH4 0xC3DFE035 EQ PUSH2 0x316 JUMPI PUSH2 0x109 JUMP JUMPDEST DUP1 PUSH4 0x5C60F226 GT PUSH2 0xD1 JUMPI DUP1 PUSH4 0x5C60F226 EQ PUSH2 0x1BF JUMPI DUP1 PUSH4 0x6F77926B EQ PUSH2 0x1FC JUMPI DUP1 PUSH4 0x7F07BFDC EQ PUSH2 0x23A JUMPI DUP1 PUSH4 0x81045EAD EQ PUSH2 0x26A JUMPI PUSH2 0x109 JUMP JUMPDEST DUP1 PUSH4 0x6FDDE03 EQ PUSH2 0x10E JUMPI DUP1 PUSH4 0x12065FE0 EQ PUSH2 0x139 JUMPI DUP1 PUSH4 0x17D7DE7C EQ PUSH2 0x164 JUMPI DUP1 PUSH4 0x2CCB1B30 EQ PUSH2 0x18F JUMPI PUSH2 0x109 JUMP JUMPDEST CALLDATASIZE PUSH2 0x109 JUMPI STOP JUMPDEST PUSH1 0x0 DUP1 REVERT JUMPDEST CALLVALUE DUP1 ISZERO PUSH2 0x11A JUMPI PUSH1 0x0 DUP1 REVERT JUMPDEST POP PUSH2 0x123 PUSH2 0x42F JUMP JUMPDEST PUSH1 0x40 MLOAD PUSH2 0x130 SWAP2 SWAP1 PUSH2 0x1744 JUMP JUMPDEST PUSH1 0x40 MLOAD DUP1 SWAP2 SUB SWAP1 RETURN JUMPDEST CALLVALUE DUP1 ISZERO PUSH2 0x145 JUMPI PUSH1 0x0 DUP1 REVERT JUMPDEST POP PUSH2 0x14E PUSH2 0x4BD JUMP JUMPDEST PUSH1 0x40 MLOAD PUSH2 0x15B SWAP2 SWAP1 PUSH2 0x177F JUMP JUMPDEST PUSH1 0x40 MLOAD DUP1 SWAP2 SUB SWAP1 RETURN JUMPDEST CALLVALUE DUP1 ISZERO PUSH2 0x170 JUMPI PUSH1 0x0 DUP1 REVERT JUMPDEST POP PUSH2 0x179 PUSH2 0x4C5 JUMP JUMPDEST PUSH1 0x40 MLOAD PUSH2 0x186 SWAP2 SWAP1 PUSH2 0x1744 JUMP JUMPDEST PUSH1 0x40 MLOAD DUP1 SWAP2 SUB SWAP1 RETURN JUMPDEST PUSH2 0x1A9 PUSH1 0x4 DUP1 CALLDATASIZE SUB DUP2 ADD SWAP1 PUSH2 0x1A4 SWAP2 SWAP1 PUSH2 0x1829 JUMP JUMPDEST PUSH2 0x557 JUMP JUMPDEST PUSH1 0x40 MLOAD PUSH2 0x1B6 SWAP2 SWAP1 PUSH2 0x1884 JUMP JUMPDEST PUSH1 0x40 MLOAD DUP1 SWAP2 SUB SWAP1 RETURN JUMPDEST CALLVALUE DUP1 ISZERO PUSH2 0x1CB JUMPI PUSH1 0x0 DUP1 REVERT JUMPDEST POP PUSH2 0x1E6 PUSH1 0x4 DUP1 CALLDATASIZE SUB DUP2 ADD SWAP1 PUSH2 0x1E1 SWAP2 SWAP1 PUSH2 0x189F JUMP JUMPDEST PUSH2 0x73B JUMP JUMPDEST PUSH1 0x40 MLOAD PUSH2 0x1F3 SWAP2 SWAP1 PUSH2 0x19C8 JUMP JUMPDEST PUSH1 0x40 MLOAD DUP1 SWAP2 SUB SWAP1 RETURN JUMPDEST CALLVALUE DUP1 ISZERO PUSH2 0x208 JUMPI PUSH1 0x0 DUP1 REVERT JUMPDEST POP PUSH2 0x223 PUSH1 0x4 DUP1 CALLDATASIZE SUB DUP2 ADD SWAP1 PUSH2 0x21E SWAP2 SWAP1 PUSH2 0x189F JUMP JUMPDEST PUSH2 0xA00 JUMP JUMPDEST PUSH1 0x40 MLOAD PUSH2 0x231 SWAP3 SWAP2 SWAP1 PUSH2 0x1A19 JUMP JUMPDEST PUSH1 0x40 MLOAD DUP1 SWAP2 SUB SWAP1 RETURN JUMPDEST PUSH2 0x254 PUSH1 0x4 DUP1 CALLDATASIZE SUB DUP2 ADD SWAP1 PUSH2 0x24F SWAP2 SWAP1 PUSH2 0x1829 JUMP JUMPDEST PUSH2 0xB7D JUMP JUMPDEST PUSH1 0x40 MLOAD PUSH2 0x261 SWAP2 SWAP1 PUSH2 0x1884 JUMP JUMPDEST PUSH1 0x40 MLOAD DUP1 SWAP2 SUB SWAP1 RETURN JUMPDEST CALLVALUE DUP1 ISZERO PUSH2 0x276 JUMPI PUSH1 0x0 DUP1 REVERT JUMPDEST POP PUSH2 0x27F PUSH2 0xDDE JUMP JUMPDEST PUSH1 0x40 MLOAD PUSH2 0x28C SWAP2 SWAP1 PUSH2 0x177F JUMP JUMPDEST PUSH1 0x40 MLOAD DUP1 SWAP2 SUB SWAP1 RETURN JUMPDEST CALLVALUE DUP1 ISZERO PUSH2 0x2A1 JUMPI PUSH1 0x0 DUP1 REVERT JUMPDEST POP PUSH2 0x2AA PUSH2 0xDE8 JUMP JUMPDEST PUSH1 0x40 MLOAD PUSH2 0x2B7 SWAP2 SWAP1 PUSH2 0x1A51 JUMP JUMPDEST PUSH1 0x40 MLOAD DUP1 SWAP2 SUB SWAP1 RETURN JUMPDEST CALLVALUE DUP1 ISZERO PUSH2 0x2CC JUMPI PUSH1 0x0 DUP1 REVERT JUMPDEST POP PUSH2 0x2D5 PUSH2 0xE12 JUMP JUMPDEST PUSH1 0x40 MLOAD PUSH2 0x2E2 SWAP2 SWAP1 PUSH2 0x1A51 JUMP JUMPDEST PUSH1 0x40 MLOAD DUP1 SWAP2 SUB SWAP1 RETURN JUMPDEST CALLVALUE DUP1 ISZERO PUSH2 0x2F7 JUMPI PUSH1 0x0 DUP1 REVERT JUMPDEST POP PUSH2 0x300 PUSH2 0xE3C JUMP JUMPDEST PUSH1 0x40 MLOAD PUSH2 0x30D SWAP2 SWAP1 PUSH2 0x1A8D JUMP JUMPDEST PUSH1 0x40 MLOAD DUP1 SWAP2 SUB SWAP1 RETURN JUMPDEST CALLVALUE DUP1 ISZERO PUSH2 0x322 JUMPI PUSH1 0x0 DUP1 REVERT JUMPDEST POP PUSH2 0x32B PUSH2 0xE62 JUMP JUMPDEST PUSH1 0x40 MLOAD PUSH2 0x338 SWAP2 SWAP1 PUSH2 0x1A51 JUMP JUMPDEST PUSH1 0x40 MLOAD DUP1 SWAP2 SUB SWAP1 RETURN JUMPDEST CALLVALUE DUP1 ISZERO PUSH2 0x34D JUMPI PUSH1 0x0 DUP1 REVERT JUMPDEST POP PUSH2 0x356 PUSH2 0x108B JUMP JUMPDEST PUSH1 0x40 MLOAD PUSH2 0x363 SWAP2 SWAP1 PUSH2 0x1A51 JUMP JUMPDEST PUSH1 0x40 MLOAD DUP1 SWAP2 SUB SWAP1 RETURN JUMPDEST CALLVALUE DUP1 ISZERO PUSH2 0x378 JUMPI PUSH1 0x0 DUP1 REVERT JUMPDEST POP PUSH2 0x393 PUSH1 0x4 DUP1 CALLDATASIZE SUB DUP2 ADD SWAP1 PUSH2 0x38E SWAP2 SWAP1 PUSH2 0x1829 JUMP JUMPDEST PUSH2 0x10B1 JUMP JUMPDEST PUSH1 0x40 MLOAD PUSH2 0x3A0 SWAP2 SWAP1 PUSH2 0x1AA8 JUMP JUMPDEST PUSH1 0x40 MLOAD DUP1 SWAP2 SUB SWAP1 RETURN JUMPDEST CALLVALUE DUP1 ISZERO PUSH2 0x3B5 JUMPI PUSH1 0x0 DUP1 REVERT JUMPDEST POP PUSH2 0x3BE PUSH2 0x12EE JUMP JUMPDEST PUSH1 0x40 MLOAD PUSH2 0x3CB SWAP2 SWAP1 PUSH2 0x1884 JUMP JUMPDEST PUSH1 0x40 MLOAD DUP1 SWAP2 SUB SWAP1 RETURN JUMPDEST CALLVALUE DUP1 ISZERO PUSH2 0x3E0 JUMPI PUSH1 0x0 DUP1 REVERT JUMPDEST POP PUSH2 0x3E9 PUSH2 0x1305 JUMP JUMPDEST PUSH1 0x40 MLOAD PUSH2 0x3F6 SWAP2 SWAP1 PUSH2 0x19C8 JUMP JUMPDEST PUSH1 0x40 MLOAD DUP1 SWAP2 SUB SWAP1 RETURN JUMPDEST PUSH2 0x419 PUSH1 0x4 DUP1 CALLDATASIZE SUB DUP2 ADD SWAP1 PUSH2 0x414 SWAP2 SWAP1 PUSH2 0x1829 JUMP JUMPDEST PUSH2 0x13C4 JUMP JUMPDEST PUSH1 0x40 MLOAD PUSH2 0x426 SWAP2 SWAP1 PUSH2 0x1884 JUMP JUMPDEST PUSH1 0x40 MLOAD DUP1 SWAP2 SUB SWAP1 RETURN JUMPDEST PUSH1 0x0 DUP1 SLOAD PUSH2 0x43C SWAP1 PUSH2 0x1AF2 JUMP JUMPDEST DUP1 PUSH1 0x1F ADD PUSH1 0x20 DUP1 SWAP2 DIV MUL PUSH1 0x20 ADD PUSH1 0x40 MLOAD SWAP1 DUP2 ADD PUSH1 0x40 MSTORE DUP1 SWAP3 SWAP2 SWAP1 DUP2 DUP2 MSTORE PUSH1 0x20 ADD DUP3 DUP1 SLOAD PUSH2 0x468 SWAP1 PUSH2 0x1AF2 JUMP JUMPDEST DUP1 ISZERO PUSH2 0x4B5 JUMPI DUP1 PUSH1 0x1F LT PUSH2 0x48A JUMPI PUSH2 0x100 DUP1 DUP4 SLOAD DIV MUL DUP4 MSTORE SWAP2 PUSH1 0x20 ADD SWAP2 PUSH2 0x4B5 JUMP JUMPDEST DUP3 ADD SWAP2 SWAP1 PUSH1 0x0 MSTORE PUSH1 0x20 PUSH1 0x0 KECCAK256 SWAP1 JUMPDEST DUP2 SLOAD DUP2 MSTORE SWAP1 PUSH1 0x1 ADD SWAP1 PUSH1 0x20 ADD DUP1 DUP4 GT PUSH2 0x498 JUMPI DUP3 SWAP1 SUB PUSH1 0x1F AND DUP3 ADD SWAP2 JUMPDEST POP POP POP POP POP DUP2 JUMP JUMPDEST PUSH1 0x0 SELFBALANCE SWAP1 POP SWAP1 JUMP JUMPDEST PUSH1 0x60 PUSH1 0x0 DUP1 SLOAD PUSH2 0x4D4 SWAP1 PUSH2 0x1AF2 JUMP JUMPDEST DUP1 PUSH1 0x1F ADD PUSH1 0x20 DUP1 SWAP2 DIV MUL PUSH1 0x20 ADD PUSH1 0x40 MLOAD SWAP1 DUP2 ADD PUSH1 0x40 MSTORE DUP1 SWAP3 SWAP2 SWAP1 DUP2 DUP2 MSTORE PUSH1 0x20 ADD DUP3 DUP1 SLOAD PUSH2 0x500 SWAP1 PUSH2 0x1AF2 JUMP JUMPDEST DUP1 ISZERO PUSH2 0x54D JUMPI DUP1 PUSH1 0x1F LT PUSH2 0x522 JUMPI PUSH2 0x100 DUP1 DUP4 SLOAD DIV MUL DUP4 MSTORE SWAP2 PUSH1 0x20 ADD SWAP2 PUSH2 0x54D JUMP JUMPDEST DUP3 ADD SWAP2 SWAP1 PUSH1 0x0 MSTORE PUSH1 0x20 PUSH1 0x0 KECCAK256 SWAP1 JUMPDEST DUP2 SLOAD DUP2 MSTORE SWAP1 PUSH1 0x1 ADD SWAP1 PUSH1 0x20 ADD DUP1 DUP4 GT PUSH2 0x530 JUMPI DUP3 SWAP1 SUB PUSH1 0x1F AND DUP3 ADD SWAP2 JUMPDEST POP POP POP POP POP SWAP1 POP SWAP1 JUMP JUMPDEST PUSH1 0x0 DUP1 PUSH1 0x1 PUSH1 0x0 SWAP1 SLOAD SWAP1 PUSH2 0x100 EXP SWAP1 DIV PUSH20 0xFFFFFFFFFFFFFFFFFFFFFFFFFFFFFFFFFFFFFFFF AND PUSH20 0xFFFFFFFFFFFFFFFFFFFFFFFFFFFFFFFFFFFFFFFF AND PUSH2 0x59B PUSH2 0x167C JUMP JUMPDEST PUSH20 0xFFFFFFFFFFFFFFFFFFFFFFFFFFFFFFFFFFFFFFFF AND EQ PUSH2 0x5BD JUMPI PUSH1 0x0 PUSH2 0x5C0 JUMP JUMPDEST PUSH1 0x1 JUMPDEST SWAP1 POP DUP1 PUSH2 0x602 JUMPI PUSH1 0x40 MLOAD PUSH32 0x8C379A000000000000000000000000000000000000000000000000000000000 DUP2 MSTORE PUSH1 0x4 ADD PUSH2 0x5F9 SWAP1 PUSH2 0x1B95 JUMP JUMPDEST PUSH1 0x40 MLOAD DUP1 SWAP2 SUB SWAP1 REVERT JUMPDEST DUP3 SELFBALANCE LT ISZERO PUSH2 0x645 JUMPI PUSH1 0x40 MLOAD PUSH32 0x8C379A000000000000000000000000000000000000000000000000000000000 DUP2 MSTORE PUSH1 0x4 ADD PUSH2 0x63C SWAP1 PUSH2 0x1C01 JUMP JUMPDEST PUSH1 0x40 MLOAD DUP1 SWAP2 SUB SWAP1 REVERT JUMPDEST PUSH1 0x0 DUP5 PUSH20 0xFFFFFFFFFFFFFFFFFFFFFFFFFFFFFFFFFFFFFFFF AND DUP5 PUSH1 0x40 MLOAD PUSH2 0x66B SWAP1 PUSH2 0x1C52 JUMP JUMPDEST PUSH1 0x0 PUSH1 0x40 MLOAD DUP1 DUP4 SUB DUP2 DUP6 DUP8 GAS CALL SWAP3 POP POP POP RETURNDATASIZE DUP1 PUSH1 0x0 DUP2 EQ PUSH2 0x6A8 JUMPI PUSH1 0x40 MLOAD SWAP2 POP PUSH1 0x1F NOT PUSH1 0x3F RETURNDATASIZE ADD AND DUP3 ADD PUSH1 0x40 MSTORE RETURNDATASIZE DUP3 MSTORE RETURNDATASIZE PUSH1 0x0 PUSH1 0x20 DUP5 ADD RETURNDATACOPY PUSH2 0x6AD JUMP JUMPDEST PUSH1 0x60 SWAP2 POP JUMPDEST POP POP SWAP1 POP DUP1 PUSH2 0x6F1 JUMPI PUSH1 0x40 MLOAD PUSH32 0x8C379A000000000000000000000000000000000000000000000000000000000 DUP2 MSTORE PUSH1 0x4 ADD PUSH2 0x6E8 SWAP1 PUSH2 0x1CB3 JUMP JUMPDEST PUSH1 0x40 MLOAD DUP1 SWAP2 SUB SWAP1 REVERT JUMPDEST PUSH32 0x26BD074035589E6689BB0DB89C84834B00E06BF19A57EAB48637D3CD8DBF2AE3 ADDRESS DUP7 DUP7 PUSH1 0x1 PUSH1 0x40 MLOAD PUSH2 0x727 SWAP5 SWAP4 SWAP3 SWAP2 SWAP1 PUSH2 0x1CD3 JUMP JUMPDEST PUSH1 0x40 MLOAD DUP1 SWAP2 SUB SWAP1 LOG1 PUSH1 0x1 SWAP3 POP POP POP SWAP3 SWAP2 POP POP JUMP JUMPDEST PUSH1 0x60 PUSH1 0x0 PUSH1 0x1 PUSH1 0x0 SWAP1 SLOAD SWAP1 PUSH2 0x100 EXP SWAP1 DIV PUSH20 0xFFFFFFFFFFFFFFFFFFFFFFFFFFFFFFFFFFFFFFFF AND PUSH20 0xFFFFFFFFFFFFFFFFFFFFFFFFFFFFFFFFFFFFFFFF AND PUSH2 0x780 PUSH2 0x167C JUMP JUMPDEST PUSH20 0xFFFFFFFFFFFFFFFFFFFFFFFFFFFFFFFFFFFFFFFF AND EQ PUSH2 0x7A2 JUMPI PUSH1 0x0 PUSH2 0x7A5 JUMP JUMPDEST PUSH1 0x1 JUMPDEST SWAP1 POP DUP1 PUSH2 0x7E7 JUMPI PUSH1 0x40 MLOAD PUSH32 0x8C379A000000000000000000000000000000000000000000000000000000000 DUP2 MSTORE PUSH1 0x4 ADD PUSH2 0x7DE SWAP1 PUSH2 0x1B95 JUMP JUMPDEST PUSH1 0x40 MLOAD DUP1 SWAP2 SUB SWAP1 REVERT JUMPDEST PUSH1 0x0 DUP1 PUSH2 0x7F3 DUP6 PUSH2 0xA00 JUMP JUMPDEST SWAP2 POP SWAP2 POP PUSH1 0x0 PUSH20 0xFFFFFFFFFFFFFFFFFFFFFFFFFFFFFFFFFFFFFFFF AND DUP3 PUSH1 0x0 ADD MLOAD PUSH20 0xFFFFFFFFFFFFFFFFFFFFFFFFFFFFFFFFFFFFFFFF AND EQ PUSH2 0x86A JUMPI PUSH1 0x40 MLOAD PUSH32 0x8C379A000000000000000000000000000000000000000000000000000000000 DUP2 MSTORE PUSH1 0x4 ADD PUSH2 0x861 SWAP1 PUSH2 0x1D8A JUMP JUMPDEST PUSH1 0x40 MLOAD DUP1 SWAP2 SUB SWAP1 REVERT JUMPDEST PUSH1 0x0 DUP3 PUSH1 0x20 ADD MLOAD GT PUSH2 0x8B1 JUMPI PUSH1 0x40 MLOAD PUSH32 0x8C379A000000000000000000000000000000000000000000000000000000000 DUP2 MSTORE PUSH1 0x4 ADD PUSH2 0x8A8 SWAP1 PUSH2 0x1E1C JUMP JUMPDEST PUSH1 0x40 MLOAD DUP1 SWAP2 SUB SWAP1 REVERT JUMPDEST PUSH1 0x4 DUP2 DUP2 SLOAD DUP2 LT PUSH2 0x8C5 JUMPI PUSH2 0x8C4 PUSH2 0x1E3C JUMP JUMPDEST JUMPDEST SWAP1 PUSH1 0x0 MSTORE PUSH1 0x20 PUSH1 0x0 KECCAK256 SWAP1 PUSH1 0x2 MUL ADD PUSH1 0x0 DUP1 DUP3 ADD PUSH1 0x0 PUSH2 0x100 EXP DUP2 SLOAD SWAP1 PUSH20 0xFFFFFFFFFFFFFFFFFFFFFFFFFFFFFFFFFFFFFFFF MUL NOT AND SWAP1 SSTORE PUSH1 0x1 DUP3 ADD PUSH1 0x0 SWAP1 SSTORE POP POP PUSH32 0xF93DA4A59A937584ECA9A6054BD8731085E1C7D8AF5209783A2ABB15E102A98F ADDRESS DUP7 PUSH1 0x40 MLOAD PUSH2 0x936 SWAP3 SWAP2 SWAP1 PUSH2 0x1E6B JUMP JUMPDEST PUSH1 0x40 MLOAD DUP1 SWAP2 SUB SWAP1 LOG1 PUSH1 0x4 DUP1 SLOAD DUP1 PUSH1 0x20 MUL PUSH1 0x20 ADD PUSH1 0x40 MLOAD SWAP1 DUP2 ADD PUSH1 0x40 MSTORE DUP1 SWAP3 SWAP2 SWAP1 DUP2 DUP2 MSTORE PUSH1 0x20 ADD PUSH1 0x0 SWAP1 JUMPDEST DUP3 DUP3 LT ISZERO PUSH2 0x9F2 JUMPI DUP4 DUP3 SWAP1 PUSH1 0x0 MSTORE PUSH1 0x20 PUSH1 0x0 KECCAK256 SWAP1 PUSH1 0x2 MUL ADD PUSH1 0x40 MLOAD DUP1 PUSH1 0x40 ADD PUSH1 0x40 MSTORE SWAP1 DUP2 PUSH1 0x0 DUP3 ADD PUSH1 0x0 SWAP1 SLOAD SWAP1 PUSH2 0x100 EXP SWAP1 DIV PUSH20 0xFFFFFFFFFFFFFFFFFFFFFFFFFFFFFFFFFFFFFFFF AND PUSH20 0xFFFFFFFFFFFFFFFFFFFFFFFFFFFFFFFFFFFFFFFF AND PUSH20 0xFFFFFFFFFFFFFFFFFFFFFFFFFFFFFFFFFFFFFFFF AND DUP2 MSTORE PUSH1 0x20 ADD PUSH1 0x1 DUP3 ADD SLOAD DUP2 MSTORE POP POP DUP2 MSTORE PUSH1 0x20 ADD SWAP1 PUSH1 0x1 ADD SWAP1 PUSH2 0x960 JUMP JUMPDEST POP POP POP POP SWAP4 POP POP POP POP SWAP2 SWAP1 POP JUMP JUMPDEST PUSH2 0xA08 PUSH2 0x1684 JUMP JUMPDEST PUSH1 0x0 DUP1 PUSH1 0x0 SWAP1 POP JUMPDEST PUSH1 0x4 DUP1 SLOAD SWAP1 POP DUP2 LT ISZERO PUSH2 0xB43 JUMPI DUP4 PUSH20 0xFFFFFFFFFFFFFFFFFFFFFFFFFFFFFFFFFFFFFFFF AND PUSH1 0x4 DUP3 DUP2 SLOAD DUP2 LT PUSH2 0xA48 JUMPI PUSH2 0xA47 PUSH2 0x1E3C JUMP JUMPDEST JUMPDEST SWAP1 PUSH1 0x0 MSTORE PUSH1 0x20 PUSH1 0x0 KECCAK256 SWAP1 PUSH1 0x2 MUL ADD PUSH1 0x0 ADD PUSH1 0x0 SWAP1 SLOAD SWAP1 PUSH2 0x100 EXP SWAP1 DIV PUSH20 0xFFFFFFFFFFFFFFFFFFFFFFFFFFFFFFFFFFFFFFFF AND PUSH20 0xFFFFFFFFFFFFFFFFFFFFFFFFFFFFFFFFFFFFFFFF AND SUB PUSH2 0xB30 JUMPI PUSH1 0x4 DUP2 DUP2 SLOAD DUP2 LT PUSH2 0xAA9 JUMPI PUSH2 0xAA8 PUSH2 0x1E3C JUMP JUMPDEST JUMPDEST SWAP1 PUSH1 0x0 MSTORE PUSH1 0x20 PUSH1 0x0 KECCAK256 SWAP1 PUSH1 0x2 MUL ADD DUP2 DUP2 PUSH1 0x40 MLOAD DUP1 PUSH1 0x40 ADD PUSH1 0x40 MSTORE SWAP1 DUP2 PUSH1 0x0 DUP3 ADD PUSH1 0x0 SWAP1 SLOAD SWAP1 PUSH2 0x100 EXP SWAP1 DIV PUSH20 0xFFFFFFFFFFFFFFFFFFFFFFFFFFFFFFFFFFFFFFFF AND PUSH20 0xFFFFFFFFFFFFFFFFFFFFFFFFFFFFFFFFFFFFFFFF AND PUSH20 0xFFFFFFFFFFFFFFFFFFFFFFFFFFFFFFFFFFFFFFFF AND DUP2 MSTORE PUSH1 0x20 ADD PUSH1 0x1 DUP3 ADD SLOAD DUP2 MSTORE POP POP SWAP2 POP SWAP3 POP SWAP3 POP POP PUSH2 0xB78 JUMP JUMPDEST DUP1 DUP1 PUSH2 0xB3B SWAP1 PUSH2 0x1EC3 JUMP JUMPDEST SWAP2 POP POP PUSH2 0xA10 JUMP JUMPDEST POP PUSH1 0x40 MLOAD DUP1 PUSH1 0x40 ADD PUSH1 0x40 MSTORE DUP1 PUSH1 0x0 PUSH20 0xFFFFFFFFFFFFFFFFFFFFFFFFFFFFFFFFFFFFFFFF AND DUP2 MSTORE PUSH1 0x20 ADD PUSH1 0x0 DUP2 MSTORE POP PUSH1 0x0 SWAP2 POP SWAP2 POP JUMPDEST SWAP2 POP SWAP2 JUMP JUMPDEST PUSH1 0x0 DUP1 PUSH1 0x1 PUSH1 0x0 SWAP1 SLOAD SWAP1 PUSH2 0x100 EXP SWAP1 DIV PUSH20 0xFFFFFFFFFFFFFFFFFFFFFFFFFFFFFFFFFFFFFFFF AND PUSH20 0xFFFFFFFFFFFFFFFFFFFFFFFFFFFFFFFFFFFFFFFF AND PUSH2 0xBC1 PUSH2 0x167C JUMP JUMPDEST PUSH20 0xFFFFFFFFFFFFFFFFFFFFFFFFFFFFFFFFFFFFFFFF AND EQ PUSH2 0xBE3 JUMPI PUSH1 0x0 PUSH2 0xBE6 JUMP JUMPDEST PUSH1 0x1 JUMPDEST SWAP1 POP DUP1 PUSH2 0xC28 JUMPI PUSH1 0x40 MLOAD PUSH32 0x8C379A000000000000000000000000000000000000000000000000000000000 DUP2 MSTORE PUSH1 0x4 ADD PUSH2 0xC1F SWAP1 PUSH2 0x1B95 JUMP JUMPDEST PUSH1 0x40 MLOAD DUP1 SWAP2 SUB SWAP1 REVERT JUMPDEST PUSH1 0x0 PUSH1 0x1 PUSH1 0x0 SWAP1 SLOAD SWAP1 PUSH2 0x100 EXP SWAP1 DIV PUSH20 0xFFFFFFFFFFFFFFFFFFFFFFFFFFFFFFFFFFFFFFFF AND PUSH20 0xFFFFFFFFFFFFFFFFFFFFFFFFFFFFFFFFFFFFFFFF AND PUSH2 0x8FC DUP6 SWAP1 DUP2 ISZERO MUL SWAP1 PUSH1 0x40 MLOAD PUSH1 0x0 PUSH1 0x40 MLOAD DUP1 DUP4 SUB DUP2 DUP6 DUP9 DUP9 CALL SWAP4 POP POP POP POP SWAP1 POP DUP1 ISZERO PUSH2 0xD93 JUMPI PUSH1 0x0 DUP1 PUSH2 0xC95 DUP8 PUSH2 0xA00 JUMP JUMPDEST SWAP2 POP SWAP2 POP PUSH1 0x40 MLOAD DUP1 PUSH1 0x40 ADD PUSH1 0x40 MSTORE DUP1 DUP9 PUSH20 0xFFFFFFFFFFFFFFFFFFFFFFFFFFFFFFFFFFFFFFFF AND DUP2 MSTORE PUSH1 0x20 ADD DUP8 DUP5 PUSH1 0x20 ADD MLOAD PUSH2 0xCD0 SWAP2 SWAP1 PUSH2 0x1F0B JUMP JUMPDEST DUP2 MSTORE POP PUSH1 0x4 DUP3 DUP2 SLOAD DUP2 LT PUSH2 0xCE7 JUMPI PUSH2 0xCE6 PUSH2 0x1E3C JUMP JUMPDEST JUMPDEST SWAP1 PUSH1 0x0 MSTORE PUSH1 0x20 PUSH1 0x0 KECCAK256 SWAP1 PUSH1 0x2 MUL ADD PUSH1 0x0 DUP3 ADD MLOAD DUP2 PUSH1 0x0 ADD PUSH1 0x0 PUSH2 0x100 EXP DUP2 SLOAD DUP2 PUSH20 0xFFFFFFFFFFFFFFFFFFFFFFFFFFFFFFFFFFFFFFFF MUL NOT AND SWAP1 DUP4 PUSH20 0xFFFFFFFFFFFFFFFFFFFFFFFFFFFFFFFFFFFFFFFF AND MUL OR SWAP1 SSTORE POP PUSH1 0x20 DUP3 ADD MLOAD DUP2 PUSH1 0x1 ADD SSTORE SWAP1 POP POP PUSH32 0x7DE9FADAD35A83DD3338EEF5DF3012919BA658514C0EE38B60CF1E5512AFE972 ADDRESS DUP9 DUP9 PUSH1 0x1 PUSH1 0x40 MLOAD PUSH2 0xD7F SWAP5 SWAP4 SWAP3 SWAP2 SWAP1 PUSH2 0x1CD3 JUMP JUMPDEST PUSH1 0x40 MLOAD DUP1 SWAP2 SUB SWAP1 LOG1 PUSH1 0x1 SWAP5 POP POP POP POP PUSH2 0xDD7 JUMP JUMPDEST PUSH32 0x7DE9FADAD35A83DD3338EEF5DF3012919BA658514C0EE38B60CF1E5512AFE972 ADDRESS DUP7 DUP7 PUSH1 0x0 PUSH1 0x40 MLOAD PUSH2 0xDC9 SWAP5 SWAP4 SWAP3 SWAP2 SWAP1 PUSH2 0x1CD3 JUMP JUMPDEST PUSH1 0x40 MLOAD DUP1 SWAP2 SUB SWAP1 LOG1 PUSH1 0x0 SWAP3 POP POP JUMPDEST POP SWAP3 SWAP2 POP POP JUMP JUMPDEST PUSH1 0x0 PUSH1 0x3 SLOAD SWAP1 POP SWAP1 JUMP JUMPDEST PUSH1 0x0 PUSH1 0x2 PUSH1 0x0 SWAP1 SLOAD SWAP1 PUSH2 0x100 EXP SWAP1 DIV PUSH20 0xFFFFFFFFFFFFFFFFFFFFFFFFFFFFFFFFFFFFFFFF AND SWAP1 POP SWAP1 JUMP JUMPDEST PUSH1 0x0 PUSH1 0x1 PUSH1 0x0 SWAP1 SLOAD SWAP1 PUSH2 0x100 EXP SWAP1 DIV PUSH20 0xFFFFFFFFFFFFFFFFFFFFFFFFFFFFFFFFFFFFFFFF AND SWAP1 POP SWAP1 JUMP JUMPDEST PUSH1 0x1 PUSH1 0x0 SWAP1 SLOAD SWAP1 PUSH2 0x100 EXP SWAP1 DIV PUSH20 0xFFFFFFFFFFFFFFFFFFFFFFFFFFFFFFFFFFFFFFFF AND DUP2 JUMP JUMPDEST PUSH1 0x0 DUP1 PUSH1 0x1 PUSH1 0x0 SWAP1 SLOAD SWAP1 PUSH2 0x100 EXP SWAP1 DIV PUSH20 0xFFFFFFFFFFFFFFFFFFFFFFFFFFFFFFFFFFFFFFFF AND PUSH20 0xFFFFFFFFFFFFFFFFFFFFFFFFFFFFFFFFFFFFFFFF AND PUSH2 0xEA6 PUSH2 0x167C JUMP JUMPDEST PUSH20 0xFFFFFFFFFFFFFFFFFFFFFFFFFFFFFFFFFFFFFFFF AND EQ PUSH2 0xEC8 JUMPI PUSH1 0x0 PUSH2 0xECB JUMP JUMPDEST PUSH1 0x1 JUMPDEST SWAP1 POP DUP1 PUSH2 0xF0D JUMPI PUSH1 0x40 MLOAD PUSH32 0x8C379A000000000000000000000000000000000000000000000000000000000 DUP2 MSTORE PUSH1 0x4 ADD PUSH2 0xF04 SWAP1 PUSH2 0x1B95 JUMP JUMPDEST PUSH1 0x40 MLOAD DUP1 SWAP2 SUB SWAP1 REVERT JUMPDEST PUSH1 0x0 DUP1 PUSH1 0x2 PUSH1 0x0 SWAP1 SLOAD SWAP1 PUSH2 0x100 EXP SWAP1 DIV PUSH20 0xFFFFFFFFFFFFFFFFFFFFFFFFFFFFFFFFFFFFFFFF AND PUSH20 0xFFFFFFFFFFFFFFFFFFFFFFFFFFFFFFFFFFFFFFFF AND ADDRESS PUSH1 0x3 SLOAD PUSH1 0x40 MLOAD PUSH1 0x24 ADD PUSH2 0xF5E SWAP3 SWAP2 SWAP1 PUSH2 0x1F3F JUMP JUMPDEST PUSH1 0x40 MLOAD PUSH1 0x20 DUP2 DUP4 SUB SUB DUP2 MSTORE SWAP1 PUSH1 0x40 MSTORE PUSH32 0xE3A4BF2900000000000000000000000000000000000000000000000000000000 PUSH28 0xFFFFFFFFFFFFFFFFFFFFFFFFFFFFFFFFFFFFFFFFFFFFFFFFFFFFFFFF NOT AND PUSH1 0x20 DUP3 ADD DUP1 MLOAD PUSH28 0xFFFFFFFFFFFFFFFFFFFFFFFFFFFFFFFFFFFFFFFFFFFFFFFFFFFFFFFF DUP4 DUP2 DUP4 AND OR DUP4 MSTORE POP POP POP POP PUSH1 0x40 MLOAD PUSH2 0xFE8 SWAP2 SWAP1 PUSH2 0x1FA4 JUMP JUMPDEST PUSH1 0x0 PUSH1 0x40 MLOAD DUP1 DUP4 SUB DUP2 PUSH1 0x0 DUP7 GAS CALL SWAP2 POP POP RETURNDATASIZE DUP1 PUSH1 0x0 DUP2 EQ PUSH2 0x1025 JUMPI PUSH1 0x40 MLOAD SWAP2 POP PUSH1 0x1F NOT PUSH1 0x3F RETURNDATASIZE ADD AND DUP3 ADD PUSH1 0x40 MSTORE RETURNDATASIZE DUP3 MSTORE RETURNDATASIZE PUSH1 0x0 PUSH1 0x20 DUP5 ADD RETURNDATACOPY PUSH2 0x102A JUMP JUMPDEST PUSH1 0x60 SWAP2 POP JUMPDEST POP SWAP2 POP SWAP2 POP DUP2 PUSH2 0x106F JUMPI PUSH1 0x40 MLOAD PUSH32 0x8C379A000000000000000000000000000000000000000000000000000000000 DUP2 MSTORE PUSH1 0x4 ADD PUSH2 0x1066 SWAP1 PUSH2 0x202D JUMP JUMPDEST PUSH1 0x40 MLOAD DUP1 SWAP2 SUB SWAP1 REVERT JUMPDEST DUP1 DUP1 PUSH1 0x20 ADD SWAP1 MLOAD DUP2 ADD SWAP1 PUSH2 0x1083 SWAP2 SWAP1 PUSH2 0x2079 JUMP JUMPDEST SWAP4 POP POP POP POP SWAP1 JUMP JUMPDEST PUSH1 0x2 PUSH1 0x0 SWAP1 SLOAD SWAP1 PUSH2 0x100 EXP SWAP1 DIV PUSH20 0xFFFFFFFFFFFFFFFFFFFFFFFFFFFFFFFFFFFFFFFF AND DUP2 JUMP JUMPDEST PUSH2 0x10B9 PUSH2 0x1684 JUMP JUMPDEST PUSH1 0x0 PUSH1 0x1 PUSH1 0x0 SWAP1 SLOAD SWAP1 PUSH2 0x100 EXP SWAP1 DIV PUSH20 0xFFFFFFFFFFFFFFFFFFFFFFFFFFFFFFFFFFFFFFFF AND PUSH20 0xFFFFFFFFFFFFFFFFFFFFFFFFFFFFFFFFFFFFFFFF AND PUSH2 0x10FC PUSH2 0x167C JUMP JUMPDEST PUSH20 0xFFFFFFFFFFFFFFFFFFFFFFFFFFFFFFFFFFFFFFFF AND EQ PUSH2 0x111E JUMPI PUSH1 0x0 PUSH2 0x1121 JUMP JUMPDEST PUSH1 0x1 JUMPDEST SWAP1 POP DUP1 PUSH2 0x1163 JUMPI PUSH1 0x40 MLOAD PUSH32 0x8C379A000000000000000000000000000000000000000000000000000000000 DUP2 MSTORE PUSH1 0x4 ADD PUSH2 0x115A SWAP1 PUSH2 0x1B95 JUMP JUMPDEST PUSH1 0x40 MLOAD DUP1 SWAP2 SUB SWAP1 REVERT JUMPDEST PUSH1 0x4 PUSH1 0x40 MLOAD DUP1 PUSH1 0x40 ADD PUSH1 0x40 MSTORE DUP1 DUP7 PUSH20 0xFFFFFFFFFFFFFFFFFFFFFFFFFFFFFFFFFFFFFFFF AND DUP2 MSTORE PUSH1 0x20 ADD DUP6 DUP2 MSTORE POP SWAP1 DUP1 PUSH1 0x1 DUP2 SLOAD ADD DUP1 DUP3 SSTORE DUP1 SWAP2 POP POP PUSH1 0x1 SWAP1 SUB SWAP1 PUSH1 0x0 MSTORE PUSH1 0x20 PUSH1 0x0 KECCAK256 SWAP1 PUSH1 0x2 MUL ADD PUSH1 0x0 SWAP1 SWAP2 SWAP1 SWAP2 SWAP1 SWAP2 POP PUSH1 0x0 DUP3 ADD MLOAD DUP2 PUSH1 0x0 ADD PUSH1 0x0 PUSH2 0x100 EXP DUP2 SLOAD DUP2 PUSH20 0xFFFFFFFFFFFFFFFFFFFFFFFFFFFFFFFFFFFFFFFF MUL NOT AND SWAP1 DUP4 PUSH20 0xFFFFFFFFFFFFFFFFFFFFFFFFFFFFFFFFFFFFFFFF AND MUL OR SWAP1 SSTORE POP PUSH1 0x20 DUP3 ADD MLOAD DUP2 PUSH1 0x1 ADD SSTORE POP POP PUSH32 0xC8F8AA5FF72E544D1FC13F5DF82D1F5A24144DD0128BCB65885473543AB91B0 ADDRESS DUP6 DUP6 PUSH1 0x40 MLOAD PUSH2 0x123F SWAP4 SWAP3 SWAP2 SWAP1 PUSH2 0x20A6 JUMP JUMPDEST PUSH1 0x40 MLOAD DUP1 SWAP2 SUB SWAP1 LOG1 PUSH1 0x4 PUSH1 0x1 PUSH1 0x4 DUP1 SLOAD SWAP1 POP PUSH2 0x125B SWAP2 SWAP1 PUSH2 0x1F0B JUMP JUMPDEST DUP2 SLOAD DUP2 LT PUSH2 0x126C JUMPI PUSH2 0x126B PUSH2 0x1E3C JUMP JUMPDEST JUMPDEST SWAP1 PUSH1 0x0 MSTORE PUSH1 0x20 PUSH1 0x0 KECCAK256 SWAP1 PUSH1 0x2 MUL ADD PUSH1 0x40 MLOAD DUP1 PUSH1 0x40 ADD PUSH1 0x40 MSTORE SWAP1 DUP2 PUSH1 0x0 DUP3 ADD PUSH1 0x0 SWAP1 SLOAD SWAP1 PUSH2 0x100 EXP SWAP1 DIV PUSH20 0xFFFFFFFFFFFFFFFFFFFFFFFFFFFFFFFFFFFFFFFF AND PUSH20 0xFFFFFFFFFFFFFFFFFFFFFFFFFFFFFFFFFFFFFFFF AND PUSH20 0xFFFFFFFFFFFFFFFFFFFFFFFFFFFFFFFFFFFFFFFF AND DUP2 MSTORE PUSH1 0x20 ADD PUSH1 0x1 DUP3 ADD SLOAD DUP2 MSTORE POP POP SWAP2 POP POP SWAP3 SWAP2 POP POP JUMP JUMPDEST PUSH1 0x0 PUSH1 0x2 PUSH1 0x14 SWAP1 SLOAD SWAP1 PUSH2 0x100 EXP SWAP1 DIV PUSH1 0xFF AND SWAP1 POP SWAP1 JUMP JUMPDEST PUSH1 0x60 PUSH1 0x4 DUP1 SLOAD DUP1 PUSH1 0x20 MUL PUSH1 0x20 ADD PUSH1 0x40 MLOAD SWAP1 DUP2 ADD PUSH1 0x40 MSTORE DUP1 SWAP3 SWAP2 SWAP1 DUP2 DUP2 MSTORE PUSH1 0x20 ADD PUSH1 0x0 SWAP1 JUMPDEST DUP3 DUP3 LT ISZERO PUSH2 0x13BB JUMPI DUP4 DUP3 SWAP1 PUSH1 0x0 MSTORE PUSH1 0x20 PUSH1 0x0 KECCAK256 SWAP1 PUSH1 0x2 MUL ADD PUSH1 0x40 MLOAD DUP1 PUSH1 0x40 ADD PUSH1 0x40 MSTORE SWAP1 DUP2 PUSH1 0x0 DUP3 ADD PUSH1 0x0 SWAP1 SLOAD SWAP1 PUSH2 0x100 EXP SWAP1 DIV PUSH20 0xFFFFFFFFFFFFFFFFFFFFFFFFFFFFFFFFFFFFFFFF AND PUSH20 0xFFFFFFFFFFFFFFFFFFFFFFFFFFFFFFFFFFFFFFFF AND PUSH20 0xFFFFFFFFFFFFFFFFFFFFFFFFFFFFFFFFFFFFFFFF AND DUP2 MSTORE PUSH1 0x20 ADD PUSH1 0x1 DUP3 ADD SLOAD DUP2 MSTORE POP POP DUP2 MSTORE PUSH1 0x20 ADD SWAP1 PUSH1 0x1 ADD SWAP1 PUSH2 0x1329 JUMP JUMPDEST POP POP POP POP SWAP1 POP SWAP1 JUMP JUMPDEST PUSH1 0x0 DUP1 PUSH1 0x1 PUSH1 0x0 SWAP1 SLOAD SWAP1 PUSH2 0x100 EXP SWAP1 DIV PUSH20 0xFFFFFFFFFFFFFFFFFFFFFFFFFFFFFFFFFFFFFFFF AND PUSH20 0xFFFFFFFFFFFFFFFFFFFFFFFFFFFFFFFFFFFFFFFF AND PUSH2 0x1408 PUSH2 0x167C JUMP JUMPDEST PUSH20 0xFFFFFFFFFFFFFFFFFFFFFFFFFFFFFFFFFFFFFFFF AND EQ PUSH2 0x142A JUMPI PUSH1 0x0 PUSH2 0x142D JUMP JUMPDEST PUSH1 0x1 JUMPDEST SWAP1 POP DUP1 PUSH2 0x146F JUMPI PUSH1 0x40 MLOAD PUSH32 0x8C379A000000000000000000000000000000000000000000000000000000000 DUP2 MSTORE PUSH1 0x4 ADD PUSH2 0x1466 SWAP1 PUSH2 0x1B95 JUMP JUMPDEST PUSH1 0x40 MLOAD DUP1 SWAP2 SUB SWAP1 REVERT JUMPDEST PUSH1 0x0 DUP1 PUSH2 0x147B DUP7 PUSH2 0xA00 JUMP JUMPDEST SWAP2 POP SWAP2 POP PUSH1 0x0 PUSH20 0xFFFFFFFFFFFFFFFFFFFFFFFFFFFFFFFFFFFFFFFF AND DUP3 PUSH1 0x0 ADD MLOAD PUSH20 0xFFFFFFFFFFFFFFFFFFFFFFFFFFFFFFFFFFFFFFFF AND EQ PUSH2 0x14F2 JUMPI PUSH1 0x40 MLOAD PUSH32 0x8C379A000000000000000000000000000000000000000000000000000000000 DUP2 MSTORE PUSH1 0x4 ADD PUSH2 0x14E9 SWAP1 PUSH2 0x1D8A JUMP JUMPDEST PUSH1 0x40 MLOAD DUP1 SWAP2 SUB SWAP1 REVERT JUMPDEST PUSH1 0x0 DUP3 PUSH1 0x0 ADD MLOAD PUSH20 0xFFFFFFFFFFFFFFFFFFFFFFFFFFFFFFFFFFFFFFFF AND PUSH2 0x8FC DUP8 SWAP1 DUP2 ISZERO MUL SWAP1 PUSH1 0x40 MLOAD PUSH1 0x0 PUSH1 0x40 MLOAD DUP1 DUP4 SUB DUP2 DUP6 DUP9 DUP9 CALL SWAP4 POP POP POP POP SWAP1 POP DUP1 ISZERO PUSH2 0x162F JUMPI PUSH1 0x40 MLOAD DUP1 PUSH1 0x40 ADD PUSH1 0x40 MSTORE DUP1 DUP9 PUSH20 0xFFFFFFFFFFFFFFFFFFFFFFFFFFFFFFFFFFFFFFFF AND DUP2 MSTORE PUSH1 0x20 ADD DUP8 DUP6 PUSH1 0x20 ADD MLOAD PUSH2 0x156C SWAP2 SWAP1 PUSH2 0x1F0B JUMP JUMPDEST DUP2 MSTORE POP PUSH1 0x4 DUP4 DUP2 SLOAD DUP2 LT PUSH2 0x1583 JUMPI PUSH2 0x1582 PUSH2 0x1E3C JUMP JUMPDEST JUMPDEST SWAP1 PUSH1 0x0 MSTORE PUSH1 0x20 PUSH1 0x0 KECCAK256 SWAP1 PUSH1 0x2 MUL ADD PUSH1 0x0 DUP3 ADD MLOAD DUP2 PUSH1 0x0 ADD PUSH1 0x0 PUSH2 0x100 EXP DUP2 SLOAD DUP2 PUSH20 0xFFFFFFFFFFFFFFFFFFFFFFFFFFFFFFFFFFFFFFFF MUL NOT AND SWAP1 DUP4 PUSH20 0xFFFFFFFFFFFFFFFFFFFFFFFFFFFFFFFFFFFFFFFF AND MUL OR SWAP1 SSTORE POP PUSH1 0x20 DUP3 ADD MLOAD DUP2 PUSH1 0x1 ADD SSTORE SWAP1 POP POP PUSH32 0x591D3DBD44A185BD80DE25B77D81EB65E3244A7F43E1F469E0BFE68DBE4C31E0 ADDRESS DUP9 DUP9 PUSH1 0x1 PUSH1 0x40 MLOAD PUSH2 0x161B SWAP5 SWAP4 SWAP3 SWAP2 SWAP1 PUSH2 0x1CD3 JUMP JUMPDEST PUSH1 0x40 MLOAD DUP1 SWAP2 SUB SWAP1 LOG1 PUSH1 0x1 SWAP5 POP POP POP POP PUSH2 0x1675 JUMP JUMPDEST PUSH32 0x591D3DBD44A185BD80DE25B77D81EB65E3244A7F43E1F469E0BFE68DBE4C31E0 ADDRESS DUP9 DUP9 PUSH1 0x0 PUSH1 0x40 MLOAD PUSH2 0x1665 SWAP5 SWAP4 SWAP3 SWAP2 SWAP1 PUSH2 0x1CD3 JUMP JUMPDEST PUSH1 0x40 MLOAD DUP1 SWAP2 SUB SWAP1 LOG1 PUSH1 0x0 SWAP5 POP POP POP POP JUMPDEST POP SWAP3 SWAP2 POP POP JUMP JUMPDEST PUSH1 0x0 CALLER SWAP1 POP SWAP1 JUMP JUMPDEST PUSH1 0x40 MLOAD DUP1 PUSH1 0x40 ADD PUSH1 0x40 MSTORE DUP1 PUSH1 0x0 PUSH20 0xFFFFFFFFFFFFFFFFFFFFFFFFFFFFFFFFFFFFFFFF AND DUP2 MSTORE PUSH1 0x20 ADD PUSH1 0x0 DUP2 MSTORE POP SWAP1 JUMP JUMPDEST PUSH1 0x0 DUP2 MLOAD SWAP1 POP SWAP2 SWAP1 POP JUMP JUMPDEST PUSH1 0x0 DUP3 DUP3 MSTORE PUSH1 0x20 DUP3 ADD SWAP1 POP SWAP3 SWAP2 POP POP JUMP JUMPDEST PUSH1 0x0 JUMPDEST DUP4 DUP2 LT ISZERO PUSH2 0x16EE JUMPI DUP1 DUP3 ADD MLOAD DUP2 DUP5 ADD MSTORE PUSH1 0x20 DUP2 ADD SWAP1 POP PUSH2 0x16D3 JUMP JUMPDEST PUSH1 0x0 DUP5 DUP5 ADD MSTORE POP POP POP POP JUMP JUMPDEST PUSH1 0x0 PUSH1 0x1F NOT PUSH1 0x1F DUP4 ADD AND SWAP1 POP SWAP2 SWAP1 POP JUMP JUMPDEST PUSH1 0x0 PUSH2 0x1716 DUP3 PUSH2 0x16B4 JUMP JUMPDEST PUSH2 0x1720 DUP2 DUP6 PUSH2 0x16BF JUMP JUMPDEST SWAP4 POP PUSH2 0x1730 DUP2 DUP6 PUSH1 0x20 DUP7 ADD PUSH2 0x16D0 JUMP JUMPDEST PUSH2 0x1739 DUP2 PUSH2 0x16FA JUMP JUMPDEST DUP5 ADD SWAP2 POP POP SWAP3 SWAP2 POP POP JUMP JUMPDEST PUSH1 0x0 PUSH1 0x20 DUP3 ADD SWAP1 POP DUP2 DUP2 SUB PUSH1 0x0 DUP4 ADD MSTORE PUSH2 0x175E DUP2 DUP5 PUSH2 0x170B JUMP JUMPDEST SWAP1 POP SWAP3 SWAP2 POP POP JUMP JUMPDEST PUSH1 0x0 DUP2 SWAP1 POP SWAP2 SWAP1 POP JUMP JUMPDEST PUSH2 0x1779 DUP2 PUSH2 0x1766 JUMP JUMPDEST DUP3 MSTORE POP POP JUMP JUMPDEST PUSH1 0x0 PUSH1 0x20 DUP3 ADD SWAP1 POP PUSH2 0x1794 PUSH1 0x0 DUP4 ADD DUP5 PUSH2 0x1770 JUMP JUMPDEST SWAP3 SWAP2 POP POP JUMP JUMPDEST PUSH1 0x0 DUP1 REVERT JUMPDEST PUSH1 0x0 PUSH20 0xFFFFFFFFFFFFFFFFFFFFFFFFFFFFFFFFFFFFFFFF DUP3 AND SWAP1 POP SWAP2 SWAP1 POP JUMP JUMPDEST PUSH1 0x0 PUSH2 0x17CA DUP3 PUSH2 0x179F JUMP JUMPDEST SWAP1 POP SWAP2 SWAP1 POP JUMP JUMPDEST PUSH2 0x17DA DUP2 PUSH2 0x17BF JUMP JUMPDEST DUP2 EQ PUSH2 0x17E5 JUMPI PUSH1 0x0 DUP1 REVERT JUMPDEST POP JUMP JUMPDEST PUSH1 0x0 DUP2 CALLDATALOAD SWAP1 POP PUSH2 0x17F7 DUP2 PUSH2 0x17D1 JUMP JUMPDEST SWAP3 SWAP2 POP POP JUMP JUMPDEST PUSH2 0x1806 DUP2 PUSH2 0x1766 JUMP JUMPDEST DUP2 EQ PUSH2 0x1811 JUMPI PUSH1 0x0 DUP1 REVERT JUMPDEST POP JUMP JUMPDEST PUSH1 0x0 DUP2 CALLDATALOAD SWAP1 POP PUSH2 0x1823 DUP2 PUSH2 0x17FD JUMP JUMPDEST SWAP3 SWAP2 POP POP JUMP JUMPDEST PUSH1 0x0 DUP1 PUSH1 0x40 DUP4 DUP6 SUB SLT ISZERO PUSH2 0x1840 JUMPI PUSH2 0x183F PUSH2 0x179A JUMP JUMPDEST JUMPDEST PUSH1 0x0 PUSH2 0x184E DUP6 DUP3 DUP7 ADD PUSH2 0x17E8 JUMP JUMPDEST SWAP3 POP POP PUSH1 0x20 PUSH2 0x185F DUP6 DUP3 DUP7 ADD PUSH2 0x1814 JUMP JUMPDEST SWAP2 POP POP SWAP3 POP SWAP3 SWAP1 POP JUMP JUMPDEST PUSH1 0x0 DUP2 ISZERO ISZERO SWAP1 POP SWAP2 SWAP1 POP JUMP JUMPDEST PUSH2 0x187E DUP2 PUSH2 0x1869 JUMP JUMPDEST DUP3 MSTORE POP POP JUMP JUMPDEST PUSH1 0x0 PUSH1 0x20 DUP3 ADD SWAP1 POP PUSH2 0x1899 PUSH1 0x0 DUP4 ADD DUP5 PUSH2 0x1875 JUMP JUMPDEST SWAP3 SWAP2 POP POP JUMP JUMPDEST PUSH1 0x0 PUSH1 0x20 DUP3 DUP5 SUB SLT ISZERO PUSH2 0x18B5 JUMPI PUSH2 0x18B4 PUSH2 0x179A JUMP JUMPDEST JUMPDEST PUSH1 0x0 PUSH2 0x18C3 DUP5 DUP3 DUP6 ADD PUSH2 0x17E8 JUMP JUMPDEST SWAP2 POP POP SWAP3 SWAP2 POP POP JUMP JUMPDEST PUSH1 0x0 DUP2 MLOAD SWAP1 POP SWAP2 SWAP1 POP JUMP JUMPDEST PUSH1 0x0 DUP3 DUP3 MSTORE PUSH1 0x20 DUP3 ADD SWAP1 POP SWAP3 SWAP2 POP POP JUMP JUMPDEST PUSH1 0x0 DUP2 SWAP1 POP PUSH1 0x20 DUP3 ADD SWAP1 POP SWAP2 SWAP1 POP JUMP JUMPDEST PUSH2 0x1901 DUP2 PUSH2 0x17BF JUMP JUMPDEST DUP3 MSTORE POP POP JUMP JUMPDEST PUSH2 0x1910 DUP2 PUSH2 0x1766 JUMP JUMPDEST DUP3 MSTORE POP POP JUMP JUMPDEST PUSH1 0x40 DUP3 ADD PUSH1 0x0 DUP3 ADD MLOAD PUSH2 0x192C PUSH1 0x0 DUP6 ADD DUP3 PUSH2 0x18F8 JUMP JUMPDEST POP PUSH1 0x20 DUP3 ADD MLOAD PUSH2 0x193F PUSH1 0x20 DUP6 ADD DUP3 PUSH2 0x1907 JUMP JUMPDEST POP POP POP POP JUMP JUMPDEST PUSH1 0x0 PUSH2 0x1951 DUP4 DUP4 PUSH2 0x1916 JUMP JUMPDEST PUSH1 0x40 DUP4 ADD SWAP1 POP SWAP3 SWAP2 POP POP JUMP JUMPDEST PUSH1 0x0 PUSH1 0x20 DUP3 ADD SWAP1 POP SWAP2 SWAP1 POP JUMP JUMPDEST PUSH1 0x0 PUSH2 0x1975 DUP3 PUSH2 0x18CC JUMP JUMPDEST PUSH2 0x197F DUP2 DUP6 PUSH2 0x18D7 JUMP JUMPDEST SWAP4 POP PUSH2 0x198A DUP4 PUSH2 0x18E8 JUMP JUMPDEST DUP1 PUSH1 0x0 JUMPDEST DUP4 DUP2 LT ISZERO PUSH2 0x19BB JUMPI DUP2 MLOAD PUSH2 0x19A2 DUP9 DUP3 PUSH2 0x1945 JUMP JUMPDEST SWAP8 POP PUSH2 0x19AD DUP4 PUSH2 0x195D JUMP JUMPDEST SWAP3 POP POP PUSH1 0x1 DUP2 ADD SWAP1 POP PUSH2 0x198E JUMP JUMPDEST POP DUP6 SWAP4 POP POP POP POP SWAP3 SWAP2 POP POP JUMP JUMPDEST PUSH1 0x0 PUSH1 0x20 DUP3 ADD SWAP1 POP DUP2 DUP2 SUB PUSH1 0x0 DUP4 ADD MSTORE PUSH2 0x19E2 DUP2 DUP5 PUSH2 0x196A JUMP JUMPDEST SWAP1 POP SWAP3 SWAP2 POP POP JUMP JUMPDEST PUSH1 0x40 DUP3 ADD PUSH1 0x0 DUP3 ADD MLOAD PUSH2 0x1A00 PUSH1 0x0 DUP6 ADD DUP3 PUSH2 0x18F8 JUMP JUMPDEST POP PUSH1 0x20 DUP3 ADD MLOAD PUSH2 0x1A13 PUSH1 0x20 DUP6 ADD DUP3 PUSH2 0x1907 JUMP JUMPDEST POP POP POP POP JUMP JUMPDEST PUSH1 0x0 PUSH1 0x60 DUP3 ADD SWAP1 POP PUSH2 0x1A2E PUSH1 0x0 DUP4 ADD DUP6 PUSH2 0x19EA JUMP JUMPDEST PUSH2 0x1A3B PUSH1 0x40 DUP4 ADD DUP5 PUSH2 0x1770 JUMP JUMPDEST SWAP4 SWAP3 POP POP POP JUMP JUMPDEST PUSH2 0x1A4B DUP2 PUSH2 0x17BF JUMP JUMPDEST DUP3 MSTORE POP POP JUMP JUMPDEST PUSH1 0x0 PUSH1 0x20 DUP3 ADD SWAP1 POP PUSH2 0x1A66 PUSH1 0x0 DUP4 ADD DUP5 PUSH2 0x1A42 JUMP JUMPDEST SWAP3 SWAP2 POP POP JUMP JUMPDEST PUSH1 0x0 PUSH2 0x1A77 DUP3 PUSH2 0x179F JUMP JUMPDEST SWAP1 POP SWAP2 SWAP1 POP JUMP JUMPDEST PUSH2 0x1A87 DUP2 PUSH2 0x1A6C JUMP JUMPDEST DUP3 MSTORE POP POP JUMP JUMPDEST PUSH1 0x0 PUSH1 0x20 DUP3 ADD SWAP1 POP PUSH2 0x1AA2 PUSH1 0x0 DUP4 ADD DUP5 PUSH2 0x1A7E JUMP JUMPDEST SWAP3 SWAP2 POP POP JUMP JUMPDEST PUSH1 0x0 PUSH1 0x40 DUP3 ADD SWAP1 POP PUSH2 0x1ABD PUSH1 0x0 DUP4 ADD DUP5 PUSH2 0x19EA JUMP JUMPDEST SWAP3 SWAP2 POP POP JUMP JUMPDEST PUSH32 0x4E487B7100000000000000000000000000000000000000000000000000000000 PUSH1 0x0 MSTORE PUSH1 0x22 PUSH1 0x4 MSTORE PUSH1 0x24 PUSH1 0x0 REVERT JUMPDEST PUSH1 0x0 PUSH1 0x2 DUP3 DIV SWAP1 POP PUSH1 0x1 DUP3 AND DUP1 PUSH2 0x1B0A JUMPI PUSH1 0x7F DUP3 AND SWAP2 POP JUMPDEST PUSH1 0x20 DUP3 LT DUP2 SUB PUSH2 0x1B1D JUMPI PUSH2 0x1B1C PUSH2 0x1AC3 JUMP JUMPDEST JUMPDEST POP SWAP2 SWAP1 POP JUMP JUMPDEST PUSH32 0x44796E616D6963506F6F6C204572726F723A204F6E6C79204F776E6572204361 PUSH1 0x0 DUP3 ADD MSTORE PUSH32 0x6E206368616E6765204F776E6572000000000000000000000000000000000000 PUSH1 0x20 DUP3 ADD MSTORE POP JUMP JUMPDEST PUSH1 0x0 PUSH2 0x1B7F PUSH1 0x2E DUP4 PUSH2 0x16BF JUMP JUMPDEST SWAP2 POP PUSH2 0x1B8A DUP3 PUSH2 0x1B23 JUMP JUMPDEST PUSH1 0x40 DUP3 ADD SWAP1 POP SWAP2 SWAP1 POP JUMP JUMPDEST PUSH1 0x0 PUSH1 0x20 DUP3 ADD SWAP1 POP DUP2 DUP2 SUB PUSH1 0x0 DUP4 ADD MSTORE PUSH2 0x1BAE DUP2 PUSH2 0x1B72 JUMP JUMPDEST SWAP1 POP SWAP2 SWAP1 POP JUMP JUMPDEST PUSH32 0x4E6F7420656E6F7567682062616C616E63652E00000000000000000000000000 PUSH1 0x0 DUP3 ADD MSTORE POP JUMP JUMPDEST PUSH1 0x0 PUSH2 0x1BEB PUSH1 0x13 DUP4 PUSH2 0x16BF JUMP JUMPDEST SWAP2 POP PUSH2 0x1BF6 DUP3 PUSH2 0x1BB5 JUMP JUMPDEST PUSH1 0x20 DUP3 ADD SWAP1 POP SWAP2 SWAP1 POP JUMP JUMPDEST PUSH1 0x0 PUSH1 0x20 DUP3 ADD SWAP1 POP DUP2 DUP2 SUB PUSH1 0x0 DUP4 ADD MSTORE PUSH2 0x1C1A DUP2 PUSH2 0x1BDE JUMP JUMPDEST SWAP1 POP SWAP2 SWAP1 POP JUMP JUMPDEST PUSH1 0x0 DUP2 SWAP1 POP SWAP3 SWAP2 POP POP JUMP JUMPDEST POP JUMP JUMPDEST PUSH1 0x0 PUSH2 0x1C3C PUSH1 0x0 DUP4 PUSH2 0x1C21 JUMP JUMPDEST SWAP2 POP PUSH2 0x1C47 DUP3 PUSH2 0x1C2C JUMP JUMPDEST PUSH1 0x0 DUP3 ADD SWAP1 POP SWAP2 SWAP1 POP JUMP JUMPDEST PUSH1 0x0 PUSH2 0x1C5D DUP3 PUSH2 0x1C2F JUMP JUMPDEST SWAP2 POP DUP2 SWAP1 POP SWAP2 SWAP1 POP JUMP JUMPDEST PUSH32 0x5472616E73666572206661696C65642E00000000000000000000000000000000 PUSH1 0x0 DUP3 ADD MSTORE POP JUMP JUMPDEST PUSH1 0x0 PUSH2 0x1C9D PUSH1 0x10 DUP4 PUSH2 0x16BF JUMP JUMPDEST SWAP2 POP PUSH2 0x1CA8 DUP3 PUSH2 0x1C67 JUMP JUMPDEST PUSH1 0x20 DUP3 ADD SWAP1 POP SWAP2 SWAP1 POP JUMP JUMPDEST PUSH1 0x0 PUSH1 0x20 DUP3 ADD SWAP1 POP DUP2 DUP2 SUB PUSH1 0x0 DUP4 ADD MSTORE PUSH2 0x1CCC DUP2 PUSH2 0x1C90 JUMP JUMPDEST SWAP1 POP SWAP2 SWAP1 POP JUMP JUMPDEST PUSH1 0x0 PUSH1 0x80 DUP3 ADD SWAP1 POP PUSH2 0x1CE8 PUSH1 0x0 DUP4 ADD DUP8 PUSH2 0x1A42 JUMP JUMPDEST PUSH2 0x1CF5 PUSH1 0x20 DUP4 ADD DUP7 PUSH2 0x1A42 JUMP JUMPDEST PUSH2 0x1D02 PUSH1 0x40 DUP4 ADD DUP6 PUSH2 0x1770 JUMP JUMPDEST PUSH2 0x1D0F PUSH1 0x60 DUP4 ADD DUP5 PUSH2 0x1875 JUMP JUMPDEST SWAP6 SWAP5 POP POP POP POP POP JUMP JUMPDEST PUSH32 0x44796E616D6963506F6F6C204572726F723A2055736572204E6F742045786973 PUSH1 0x0 DUP3 ADD MSTORE PUSH32 0x7420696E2074686973204368616C6C656E676500000000000000000000000000 PUSH1 0x20 DUP3 ADD MSTORE POP JUMP JUMPDEST PUSH1 0x0 PUSH2 0x1D74 PUSH1 0x33 DUP4 PUSH2 0x16BF JUMP JUMPDEST SWAP2 POP PUSH2 0x1D7F DUP3 PUSH2 0x1D18 JUMP JUMPDEST PUSH1 0x40 DUP3 ADD SWAP1 POP SWAP2 SWAP1 POP JUMP JUMPDEST PUSH1 0x0 PUSH1 0x20 DUP3 ADD SWAP1 POP DUP2 DUP2 SUB PUSH1 0x0 DUP4 ADD MSTORE PUSH2 0x1DA3 DUP2 PUSH2 0x1D67 JUMP JUMPDEST SWAP1 POP SWAP2 SWAP1 POP JUMP JUMPDEST PUSH32 0x44796E616D6963506F6F6C204572726F723A2043616E204E6F742052656D6F76 PUSH1 0x0 DUP3 ADD MSTORE PUSH32 0x6520557365722069662055736572206465706F73697420457869737400000000 PUSH1 0x20 DUP3 ADD MSTORE POP JUMP JUMPDEST PUSH1 0x0 PUSH2 0x1E06 PUSH1 0x3C DUP4 PUSH2 0x16BF JUMP JUMPDEST SWAP2 POP PUSH2 0x1E11 DUP3 PUSH2 0x1DAA JUMP JUMPDEST PUSH1 0x40 DUP3 ADD SWAP1 POP SWAP2 SWAP1 POP JUMP JUMPDEST PUSH1 0x0 PUSH1 0x20 DUP3 ADD SWAP1 POP DUP2 DUP2 SUB PUSH1 0x0 DUP4 ADD MSTORE PUSH2 0x1E35 DUP2 PUSH2 0x1DF9 JUMP JUMPDEST SWAP1 POP SWAP2 SWAP1 POP JUMP JUMPDEST PUSH32 0x4E487B7100000000000000000000000000000000000000000000000000000000 PUSH1 0x0 MSTORE PUSH1 0x32 PUSH1 0x4 MSTORE PUSH1 0x24 PUSH1 0x0 REVERT JUMPDEST PUSH1 0x0 PUSH1 0x40 DUP3 ADD SWAP1 POP PUSH2 0x1E80 PUSH1 0x0 DUP4 ADD DUP6 PUSH2 0x1A42 JUMP JUMPDEST PUSH2 0x1E8D PUSH1 0x20 DUP4 ADD DUP5 PUSH2 0x1A42 JUMP JUMPDEST SWAP4 SWAP3 POP POP POP JUMP JUMPDEST PUSH32 0x4E487B7100000000000000000000000000000000000000000000000000000000 PUSH1 0x0 MSTORE PUSH1 0x11 PUSH1 0x4 MSTORE PUSH1 0x24 PUSH1 0x0 REVERT JUMPDEST PUSH1 0x0 PUSH2 0x1ECE DUP3 PUSH2 0x1766 JUMP JUMPDEST SWAP2 POP PUSH32 0xFFFFFFFFFFFFFFFFFFFFFFFFFFFFFFFFFFFFFFFFFFFFFFFFFFFFFFFFFFFFFFFF DUP3 SUB PUSH2 0x1F00 JUMPI PUSH2 0x1EFF PUSH2 0x1E94 JUMP JUMPDEST JUMPDEST PUSH1 0x1 DUP3 ADD SWAP1 POP SWAP2 SWAP1 POP JUMP JUMPDEST PUSH1 0x0 PUSH2 0x1F16 DUP3 PUSH2 0x1766 JUMP JUMPDEST SWAP2 POP PUSH2 0x1F21 DUP4 PUSH2 0x1766 JUMP JUMPDEST SWAP3 POP DUP3 DUP3 SUB SWAP1 POP DUP2 DUP2 GT ISZERO PUSH2 0x1F39 JUMPI PUSH2 0x1F38 PUSH2 0x1E94 JUMP JUMPDEST JUMPDEST SWAP3 SWAP2 POP POP JUMP JUMPDEST PUSH1 0x0 PUSH1 0x40 DUP3 ADD SWAP1 POP PUSH2 0x1F54 PUSH1 0x0 DUP4 ADD DUP6 PUSH2 0x1A42 JUMP JUMPDEST PUSH2 0x1F61 PUSH1 0x20 DUP4 ADD DUP5 PUSH2 0x1770 JUMP JUMPDEST SWAP4 SWAP3 POP POP POP JUMP JUMPDEST PUSH1 0x0 DUP2 MLOAD SWAP1 POP SWAP2 SWAP1 POP JUMP JUMPDEST PUSH1 0x0 PUSH2 0x1F7E DUP3 PUSH2 0x1F68 JUMP JUMPDEST PUSH2 0x1F88 DUP2 DUP6 PUSH2 0x1C21 JUMP JUMPDEST SWAP4 POP PUSH2 0x1F98 DUP2 DUP6 PUSH1 0x20 DUP7 ADD PUSH2 0x16D0 JUMP JUMPDEST DUP1 DUP5 ADD SWAP2 POP POP SWAP3 SWAP2 POP POP JUMP JUMPDEST PUSH1 0x0 PUSH2 0x1FB0 DUP3 DUP5 PUSH2 0x1F73 JUMP JUMPDEST SWAP2 POP DUP2 SWAP1 POP SWAP3 SWAP2 POP POP JUMP JUMPDEST PUSH32 0x44796E616D6963506F6F6C204572726F723A2043616E204E6F74206765742052 PUSH1 0x0 DUP3 ADD MSTORE PUSH32 0x65766572736520506F6F6C204164647265737300000000000000000000000000 PUSH1 0x20 DUP3 ADD MSTORE POP JUMP JUMPDEST PUSH1 0x0 PUSH2 0x2017 PUSH1 0x33 DUP4 PUSH2 0x16BF JUMP JUMPDEST SWAP2 POP PUSH2 0x2022 DUP3 PUSH2 0x1FBB JUMP JUMPDEST PUSH1 0x40 DUP3 ADD SWAP1 POP SWAP2 SWAP1 POP JUMP JUMPDEST PUSH1 0x0 PUSH1 0x20 DUP3 ADD SWAP1 POP DUP2 DUP2 SUB PUSH1 0x0 DUP4 ADD MSTORE PUSH2 0x2046 DUP2 PUSH2 0x200A JUMP JUMPDEST SWAP1 POP SWAP2 SWAP1 POP JUMP JUMPDEST PUSH2 0x2056 DUP2 PUSH2 0x1A6C JUMP JUMPDEST DUP2 EQ PUSH2 0x2061 JUMPI PUSH1 0x0 DUP1 REVERT JUMPDEST POP JUMP JUMPDEST PUSH1 0x0 DUP2 MLOAD SWAP1 POP PUSH2 0x2073 DUP2 PUSH2 0x204D JUMP JUMPDEST SWAP3 SWAP2 POP POP JUMP JUMPDEST PUSH1 0x0 PUSH1 0x20 DUP3 DUP5 SUB SLT ISZERO PUSH2 0x208F JUMPI PUSH2 0x208E PUSH2 0x179A JUMP JUMPDEST JUMPDEST PUSH1 0x0 PUSH2 0x209D DUP5 DUP3 DUP6 ADD PUSH2 0x2064 JUMP JUMPDEST SWAP2 POP POP SWAP3 SWAP2 POP POP JUMP JUMPDEST PUSH1 0x0 PUSH1 0x60 DUP3 ADD SWAP1 POP PUSH2 0x20BB PUSH1 0x0 DUP4 ADD DUP7 PUSH2 0x1A42 JUMP JUMPDEST PUSH2 0x20C8 PUSH1 0x20 DUP4 ADD DUP6 PUSH2 0x1A42 JUMP JUMPDEST PUSH2 0x20D5 PUSH1 0x40 DUP4 ADD DUP5 PUSH2 0x1770 JUMP JUMPDEST SWAP5 SWAP4 POP POP POP POP JUMP INVALID LOG2 PUSH5 0x6970667358 0x22 SLT KECCAK256 PUSH31 0xE6A86A46D2BB2B4813875D065D97D62785DEDA31F5013A70C310E5A80CDE76 PUSH5 0x736F6C6343 STOP ADDMOD EQ STOP CALLER LOG2 PUSH5 0x6970667358 0x22 SLT KECCAK256 0xC1 CALLVALUE SUB 0xA7 CALLDATACOPY DUP12 SWAP9 CALLER CODECOPY PUSH20 0xB60EF233382E19C892EC6497E8232EA4B547FBF9 DELEGATECALL 0xB8 PUSH5 0x736F6C6343 STOP ADDMOD EQ STOP CALLER "},"methodIdentifiers":{"changeOwner(address)":"a6f9dae1","createChallenge(string)":"6bf78c2f","getChallenge(uint256)":"1bdd4b74","getIndex()":"81045ead","getOwner()":"893d20e8","responseReversePool(address,uint256)":"9086f772","storeChallenge(address,address,uint256)":"9b4ecbbb"}}}}}